:020000040800F2
:10000000A8080020D9000008FF000008010100082E
:1000100000000000000000000000000000000000E0
:1000200000000000000000000000000003010008C4
:100030000000000000000000050100081512000883
:10004000090100080000000009010008090100087A
:100050000901000809010008090100080901000858
:10006000000000000901000809010008090100085A
:10007000090100080901000809010008000000004A
:10008000090100080000000000000000090100084C
:10009000000000000901000809010008090100082A
:1000A0000000000009010008000000008D15000894
:1000B000051600080000000000000000090100080B
:1000C0000448854600F0C0F8004800476D2100084C
:1000D000C046C046A80800200C4880F308880C4899
:1000E0000168090E0B4A914205D10B480B4901608A
:1000F0000B480C4901600C4880470C480047FEE75C
:10010000FEE7FEE7FEE7FEE7FEE70000A8080020A6
:10011000040000001F000000181002400100000051
:100120000000014000000000ED120008C1000008BE
:1001300030B50B46014600202022012409E00D467F
:10014000D5409D4205D31D469540491B2546954007
:1001500040191546521E002DF1DC30BD70B500244B
:100160002546002801DA01244042002901DA012550
:100170004942FFF7DDFFAC4200D04042002C00D0E6
:10018000494270BD03460B439B0703D009E008C9F1
:10019000121F08C0042AFAD203E00B780370401C37
:1001A000491C521EF9D27047D2B201E00270401CC5
:1001B000491EFBD270470022F6E710B513460A46E7
:1001C00004461946FFF7F0FF204610BD30B504463F
:1001D0000020034600E05B1C934203D2E05CCD5C50
:1001E000401BF8D030BDF0B51FB40646002082B0E9
:1001F00005464024019100901BE0019922460F46DC
:10020000304600F043F8049A059B801A994110D3B8
:1002100010461946224600F029F8361A8F410197F8
:10022000224601200021009F00F020F838184D419F
:1002300000902046641E0028DFDC019B00982946C0
:10024000324607B0F0BD0000064C0125064E05E021
:10025000E36807CC2B430C3C98471034B442F7D3E7
:10026000FFF732FFC4270008E427000810B5202A52
:1002700004DB0146203A9140002010BD914020232C
:100280009C1A0346E3401943904010BD10B5202A44
:1002900004DB0846203AD040002110BD0B46D34075
:1002A000D0402024A21A91400843194610BD0000F6
:1002B0000149C8607047000000200240F0B50646C2
:1002C0000B273F04384600F087F804280FD1084C6C
:1002D0002069022528432061666120694021084386
:1002E0002061384600F078F82169A9432161F0BD0A
:1002F0000020024004200849CA68D20701D001202A
:100300007047CA68D20601D502207047C9684907FC
:10031000FBD503207047000000200240024801691D
:10032000802211430161704700200240F0B505466C
:100330000E460B273F04384600F04EF804280CD137
:10034000064C20690121084320612E80384600F0C8
:1003500043F82169490849002161F0BD00200240AD
:10036000F8B505460E46002000900B273F0438469E
:1003700000F032F804280ED10E4C20690121084308
:1003800020612E80384600F027F8042804D0216927
:10039000490849002161F8BDAD1C00950098310C59
:1003A0000180384600F018F82169490849002161A8
:1003B000F8BD00000020024004480169090603D589
:1003C000034941600349416070470000002002403A
:1003D00023016745AB89EFCD00B50346FFF78AFFE0
:1003E00002E0FFF787FF5B1E012801D1002BF8D147
:1003F000002B00D1052000BD0021002007E0444A69
:10040000821811684A1C002A00D104E0001D7D22D8
:10041000D2009042F3D300BF3E4A10601268002A17
:1004200013D03C4A12683A4BD218403A928F920548
:10043000920D394B1A80374A1268354BD218403A20
:10044000928FD204D20F344B9A70002007E0334AC7
:1004500082181188324A914200D104E0801C7D222A
:10046000D2009042F3D300BF2E4A10601268002AD7
:1004700006D10023284A137193711923537111E097
:10048000284A1268254BD218403AD18F8B079B0F10
:10049000214A93714A06530F1F4A1371CA04D30E9F
:1004A0001D4A53711C4A5279102A03DB1A4A5279A9
:1004B0001E2A02DD1923184A5371174A1279082A95
:1004C00002DD0023144A1371134A9279032A02DDD4
:1004D0000023114A9371104A9278012A02DD00220A
:1004E0000D4B9A700C4AD3780F4A53810A4A1388ED
:1004F0000E4A5382084A53790C4A5383064A1379A9
:100500000A4AD382044A9379084AD3837047000089
:1005100000740008DC00002042030020007800087E
:10052000FFFF0000E00000205C0400207C040020AD
:1005300038B50446002000902E4800687D21C9008F
:10054000884205D92C4801F0B5FB002029490860F4
:100550002A4800687D21C900884205D9284801F051
:10056000A9FB002025490860012C1AD125480088E4
:100570000105090D68460180008822498978090330
:10058000084381B2684601801A4909681A4A8818E6
:100590000222694601F038FC16480068001D154922
:1005A0000860022C25D1174880798107890F684699
:1005B0000180008813490979090170221140014323
:1005C0006846018000880F49497909021F221202FA
:1005D000114008436946088008490968084A881894
:1005E0000122694601F010FC04480068801C0349A0
:1005F000086038BDDC00002000740008E000002026
:100600000078000842030020F0B5002203250123F2
:1006100093400C681C409C422AD10C79012C01D0DB
:10062000022C12D1876854002E46A640B74387603B
:100630004E79A64084682643866084889C438480E3
:1006400084888B7993401C438480066853002C4631
:100650009C40A64306600E7907689E403E430660B4
:10066000C668A643C660CC799C40C3681C43C4607E
:10067000521C102ACBD3F0BD10B54B07DB0E9A40AD
:10068000C90889000818016A0F249C40A14301622F
:10069000016A1143016210BD018570478161704795
:1006A0000249014808607047AAAA000000300040D3
:1006B000F8B5324A32491088324E334D884215D14E
:1006C00055242146104601F0D9FB2C482146801CB8
:1006D00001F0D4FB01F0D4FD02462CA32DA12EA0E5
:1006E00001F06EF8284601F02FFD2CE055281FD1AF
:1006F0005088AA281CD19088884219D1FA211F4815
:10070000001D01F0BBFB01F0BBFD02461FA321A1B0
:100710002CA001F055F801F04DFE022030600024BD
:10072000A002401901F0C6FA641C102CF8D30AE0AC
:10073000D088552815D001F0A3FD024613A327A1A8
:1007400027A001F03DF83068002809D1C82001F049
:100750009DFA2AA0006800900321684600F0B0FFCF
:10076000F8BD01F08DFD024608A30AA124A001F006
:1007700027F8284601F0E8FCE5E70000007C0008C7
:10078000FFFF00009C030020002000086D61696EDF
:10079000000000004900000025732028257529204D
:1007A00025733A20466972737420706F77657220E2
:1007B0006F6E2C206A756D7020746F204170700D03
:1007C0000A000000257320282575292025733A206A
:1007D0004941502053746172740D0A0045000000B5
:1007E000257320282575292025733A20494150205A
:1007F0006661696C65640D0A00000000FF6FFE0011
:10080000257320282575292025733A204E6F726D97
:10081000616C205265626F6F742C206A756D702058
:10082000746F204170700D0A000000007FB52648EB
:10083000807808281DD1244808222449FE38FFF773
:10084000C5FC002815D1224801F034FA5525294667
:100850001F4801F013FBAA251D482946801C01F002
:100860000DFB432000900121684600F029FF00F0B5
:1008700009FC18480068002801D104B070BD0021AF
:100880000191114801AB817802AAFE3801F09EFD6A
:100890000446052001F0FAF968468088002805DD45
:1008A00068468088C1B202A800F00AFF022C02D17B
:1008B000094801F049FC68468088002801DD0120D4
:1008C000DBE70020D9E700003F030020FD00002007
:1008D000007C00089C0300200020000810B50C4894
:1008E00003210078FFF73AFC002905D109200121F6
:1008F000C006FFF7D1FE04E009200121C006FFF782
:10090000CDFE034802490078401C087010BD00006D
:100910000501002010B513484078062818D006DCE1
:1009200001280CD003280DD0052804D10DE00F2894
:1009300011D0102812D0012000F010FB10BD00F0E3
:100940002DF810BD00F0A0F810BD00F0E3F810BDC8
:1009500000F038F910BD00F08DF910BD00F0C8F9B5
:1009600010BD0000D803002010B50A480178042902
:100970000ED3403801F020FC002809D1054840384A
:1009800000786F2804D1FFF7C5FF034901200870E4
:1009900010BD0000180400201C010020F0B591B02B
:1009A000402101A8FFF707FC354801794279090287
:1009B00089188DB2691E082904D3032000F0CEFAED
:1009C00011B0F0BD2E488178C0780902081887B2AE
:1009D0002C498888B84204D87819C988401E8842B2
:1009E00003DD022000F0BAFAEAE7E81DC60800209D
:1009F000002101AA02E01154401C80B2B042FAD397
:100A0000002417E0381980B200F0FEF900280FD05A
:100A1000012803D0042000F0A1FAD1E7E00801A9E1
:100A20006307095C5B0F01229A40114301AA11542C
:100A3000641CA4B2AC42E5D311498031104C422071
:100A400022780255084662783F3882700320887009
:100A500008463E388670002001AD08E08A782B5C9D
:100A6000571C12198F7040329370401C80B2B042F4
:100A7000F4D303488978423000F096FAA0E70000EA
:100A8000D80300202001002070B5204908794A7958
:100A9000000210438A781302CA781343421E162AB2
:100AA00003D3032000F05AFA70BD194CA2889A4271
:100AB00004D81A18E488521EA24203DD022000F076
:100AC0004DFA70BD114C80340D78422255544A784D
:100AD00021463F398A700321A170450021463E39E5
:100AE0008D70C2B208460646C11C184600F0A0F937
:100AF000002807D0A0784019C1B2A170304600F09C
:100B000053FA70BD042000F029FA70BDD80300200C
:100B10002C01002070B52748017942790902891813
:100B20008DB2002D07D0FF2109028D4203D0032092
:100B300000F014FA70BD8178C0780902081884B2F8
:100B40001D488188A14231D8C088A0422ED32946B1
:100B5000204600F095F9012803D9042000F0FEF9A1
:100B600070BD16480189A1420AD1002D06D000208F
:100B700043214904401801F0E7FB13E00120F7E7A7
:100B80000188A14207D10E480121408AC9054018B9
:100B900001F0DAFB06E0808BA04203D18120000443
:100BA00001F0D2FB002000F0D9F970BD022000F066
:100BB000D5F970BDD8030020200100205C0400207E
:100BC0007C04002010B5244988780402C8780443C6
:100BD00022488288A24202D8C088A04203D20220C2
:100BE00000F0BCF910BD0122091D204600F088F973
:100BF000002813D01A49888BA04217D1C88B03282C
:100C000014D218498A781849002A0BD0002809D034
:100C10004000401E084301F097FB19E0042000F05B
:100C20009DF910BD084301F08FFB11E0888AA042B6
:100C300005D1C88A0D49084301F086FB08E0088BFE
:100C4000A04205D1488B0A491038084301F07CFBCB
:100C5000002000F083F910BDD80300202C010020F3
:100C60007C0400204203002000048600000186006E
:100C70000002860010B51C4A107951790002401814
:100C800081B2481E082803D3032000F067F910BD85
:100C90004805000E4B0701D0401CC0B29379834237
:100CA00003D0032000F05AF910BD9078D3780002E9
:100CB000C01880B20D4CA388834204D84318E4883E
:100CC0005B1EA34203DD022000F048F910BDD21DD7
:100CD00000F0F2F8012803D9042000F03FF910BD1C
:100CE000002000F03BF910BDD803002020010020B7
:100CF00010B5154908790202487902438878CB7803
:100D000000021843531E162B03D3032000F026F9CC
:100D100010BD0E4CA388834204D88318E4885B1E60
:100D2000A34203DD022000F019F910BDD2B2C91DA3
:100D300000F0E6F8002803D0002000F00FF910BD05
:100D4000042000F00BF910BDD80300202C01002076
:100D500001804280704701804280704730B525484D
:100D6000234C8480E11DC1800023234D980040194D
:100D700000221919FFF7ECFF5B1CDBB2082BF5D33F
:100D80001C481E490C3081801D49C18000231A4C2B
:100D90004D1E2034581981B2980000190022FFF727
:100DA000DAFF5B1CDBB2022BF4D30023154D0022CB
:100DB000581981B2981C80000019FFF7CCFF5B1C0A
:100DC000DBB2022BF3D300230E4D0A35581981B242
:100DD000181D800000190022FFF7BDFF5B1CDBB26D
:100DE000072BF3D36F206080F520E08030BD00003A
:100DF000E02E0000200100205C04002050C3000011
:100E000079E6000038C700000021084A8B00D35A59
:100E1000834205D1880080188078C007C00F7047D2
:100E2000491C89B20829F1D3C8B270475C0400207C
:100E300070B500238418114D641E9E00AE5B86427F
:100E400016D19E18761EB600AE5BA64210D10020C9
:100E50000AE01C18A40064196688360A0E70A4788B
:100E60004C70891C401CC0B29042F2D3012070BD6E
:100E70005B1CDBB20B2BE0D3002070BD7C04002098
:100E800010B500220B4B94001C5B84420CD100294E
:100E900004D001209100C918488003E0002091008F
:100EA000C9184880012010BD521C92B2082AEAD30A
:100EB000D0B210BD5C04002070B5034600200F4D79
:100EC00084002C5B9C4203D0401C80B20828F7D3DE
:100ED000082811D200230CE0DC08145D5E07760FB1
:100EE000F440E407C618E40FB600761974805B1C62
:100EF0009BB28B42F0D3012070BD00005C04002047
:100F0000F0B500238418124E641E9D00755B854267
:100F100017D19D186D1EAD00755BA54211D1002043
:100F20000BE00C7825021C18A400A41965804F78EA
:100F3000891C2F436780401CC0B29042F1D301202E
:100F4000F0BD5B1CDBB20B2BDFD30020F0BD00003B
:100F50007C04002010B500F0B3FB10BD10B5114AA1
:100F60001146803100280BD06F24134640339C700B
:100F7000527880242243DA701871032088700AE0C6
:100F800000201318145C40339C70401CC0B206282B
:100F9000F7D30620887003488978423000F004F8BF
:100FA00010BD0000D803002070B504460D46294648
:100FB000204601F001F9691CCAB26055030A501CB1
:100FC000C1B2A3542046FFF7C5FF70BD10B5164847
:100FD000154A01680068401C1060642923D3134837
:100FE000418B1348407981420BD11048C18A104887
:100FF0000079814205D10D48C18B0D48807981422D
:101000000ED00A48817E0A4841710848817D08480F
:1010100001710648817F064881710220FFF788FA36
:1010200001490020086010BD0C0100207C04002054
:101030004203002030B5827801240178002A16D0BE
:101040008B080E4A9B009A1813688907C90EFF2562
:101050008D40AB434578AD072D0E8D401D43156087
:101060000078C006C00E84400548046030BDC80644
:10107000C00E844002488030046030BD00E400E0CF
:1010800000E100E0BFF34F8F03490248C860BFF39F
:101090004F8FFEE70400FA0500ED00E0054A002945
:1010A00003D05169014351617047516981435161D6
:1010B0007047000000100240054A002903D0D169A2
:1010C0000143D1617047D1698143D161704700000C
:1010D00000100240054A002903D091690143916143
:1010E0007047916981439161704700000010024090
:1010F0007CB5002301930093324801680122120459
:10110000114301605200052424030168114000913D
:101110000199491C01910099002902D10199A1422C
:10112000F3D10168890302D50121009100E0009309
:101130007F210123009E1125234CC9031B06022297
:10114000012E1FD0256044684460446844604468B0
:101150008C43446041682124E403214341600168D9
:101160001943016001688901FCD54168890889003B
:10117000416041681143416041680907890F0229B4
:10118000FAD17CBD2560446844604468446044688A
:101190008C43446041681124240421434160016868
:1011A0001943016001688901FCD5416889088900FB
:1011B000416041681143416041680907890F022974
:1011C000FAD17CBD001002400020024010B50E484C
:1011D0000078002805D00D49002008600A490870F1
:1011E0000EE00A4809490068401C0860084600688B
:1011F0000749884204D9054900200860FFF742FFEB
:10120000FFF74EFA10BD00001C010020080100206D
:101210001027000013480068401C1249086012485B
:10122000007800280CD010480078401C0E49087047
:1012300008460078052803DD01204870002008706A
:101240000A48007800280CD008480078401C07495C
:10125000087008460078052803DD0120487000204A
:1012600008707047D40000203C0100203F0200209D
:1012700070B51A4E71680C2001401948194C0029AC
:101280000ED004290ED008290ED0206070681549B0
:101290000006000F091D085C2168C140216070BD77
:1012A0002060F3E72060F1E771680F22920411409B
:1012B00072680323DB031A408D0CAD1C002A08D092
:1012C000F16A0907090F491CFEF732FF68432060E5
:1012D000DCE7054845432560D8E7000000100240E0
:1012E00000127A00C000002000093D0010B514482B
:1012F00001680122114301604168124A11404160B6
:101300000168114A11400160016801229204914371
:10131000016041683F22120491434160C16A09099A
:101320000901C162016BFF22543291430163416B99
:1013300049084900416300218160FFF7D9FE10BDD3
:10134000001002400CB8FFF8FFFFF6FE38B5044667
:101350002088002802D03B2848D104E045E000BFA7
:101360003B20208000BF23484078002800D138BDB2
:1013700000BF00BF00F084FF05461F481FA3807810
:1013800000902A461EA11FA000F01AFA00BF0025F7
:1013900006E01848801C415D25A000F011FA6D1C84
:1013A00015488078A842F4DC23A000F009FA12481E
:1013B0008078062811D100F0F5FD002802D11F49E0
:1013C00008700AE01D481D490078401C0870084656
:1013D00000780A2801DDFFF755FE19490020C87181
:1013E000FF2104310348FEF7E6FEB8E70020208025
:1013F0000220BCE73C0100203C020020417070004C
:1014000049000000257320282575292025733A20DE
:101410004952206461746120726563656976656410
:10142000206C656E3A20256420646174613A000086
:1014300025303258200000000D0A0000FC0000207A
:101440004203002038B504462088002802D06728CF
:1014500045D104E042E000BF6720208000BF224861
:101460004078002800D138BD00BF00BF00F008FF61
:1014700005461E481EA3807800902A461DA11EA086
:1014800000F09EF900BF002506E01748801C415D72
:1014900025A000F095F96D1C14488078A842F4DC72
:1014A00023A000F08DF9FFF7C1F9002811D10F48F2
:1014B000807840280DDA0D4801468278FE391D48B3
:1014C000FEF760FE094881781A4840300170FFF746
:1014D0004BFAFF2104310448FEF76DFEBBE7002004
:1014E00020800220BFE700003F0200203F030020D1
:1014F00041707000490000002573202825752920BF
:1015000025733A2052533438352064617461207257
:1015100065636569766564206C656E3A2025642094
:10152000646174613A0000002530325820000000E8
:101530000D0A0000D803002010B5044620880028BA
:1015400002D08F281ED112E01BE000F04DFEFFF705
:10155000C5F9FFF73BFE00F003F9FFF737FD00BFC9
:1015600000F08EFE606000BF8F20208000BF00F082
:1015700087FE6168401A642801D2002010BD00BFB8
:1015800000BFE2E7002020800220F7E71A48C06988
:1015900020210840002810D0174820308088C1B290
:1015A000164882788078401CC3B214488370FE3895
:1015B00081540120124908701CE00F48C0690221C3
:1015C0000840002803D002200B49086212E00A48B4
:1015D000C06904210840002803D00420064908629D
:1015E00008E00548C06908210840002802D008200A
:1015F0000149086270470000003801403C020020A9
:101600003C0100201A48C06920210840002810D061
:10161000174820308088C1B2164882788078401CF4
:10162000C3B214488370FE388154012012490870F7
:101630001CE00F48C06902210840002803D00220A6
:101640000B49086212E00A48C069042108400028DA
:1016500003D004200649086208E00548C069082153
:101660000840002802D008200149086270470000A5
:10167000004400403F0300203F02002002460020BB
:10168000D2690A4200D001207047C905C90D018501
:101690007047000010B5024600200CE0135C074CB8
:1016A000238100BF054B203BDB6980242340002BB6
:1016B000F8D0431CD8B28842F0DB10BD2044004073
:1016C00070B504460D4602210920C006FEF7E6FF6C
:1016D00000200CE0215C0E4A118100BF0C4920392A
:1016E000C969802211400029F8D0411CC8B2A84223
:1016F000F0DB00BF06482038C069402108400028C0
:10170000F8D002210920C006FEF7C6FF70BD000018
:1017100020380140FF310131064A40004900CB0525
:1017200000D5401CC30300D55040CB03F5D580B293
:10173000704700002110000070B5044600206518B5
:1017400004E02178641C80B2FFF7E4FFAC42F8D3D8
:1017500080B20021FFF7DEFF0021FFF7DBFF70BD45
:1017600008B516480068002827D014481349806B34
:10177000401C88630846806B1E280CD90846406BC5
:10178000401C4863002088631520694608700121C9
:101790006846FFF795FF0948406B05280CDD3C21A2
:1017A0000648FEF708FD18216846017041700221C5
:1017B000FFF786FFFFF766FC00BF08BD9C03002013
:1017C0000FB410B503A9044B044A029800F024F8A2
:1017D00010BC08BC04B01847DD1E0008380100200A
:1017E00030B47446641E2578641CAB4200D21D469A
:1017F000635D5B00E31830BC184702E008C8121FA5
:1018000008C1002AFAD170477047002001E001C1E9
:10181000121F002AFBD17047FFB591B00F46054655
:10182000002606E025280AD0149A139990476D1CCB
:10183000761C28780028F5D1304615B0F0BD00247C
:1018400000940121F34A029400E004436D1C2B78BC
:101850000846203B98401042F7D128782A280ED01D
:101860000222287801463039092915D800990A231F
:1018700059433039401814436D1C0090F1E701CFF3
:101880000090002805DA01204003044300984042FC
:101890000090022004436D1C28782E2815D10420C6
:1018A000044368786D1C2A280AD101CF6D1C029070
:1018B0000BE002990A225143303940186D1C029006
:1018C0002878014630390929F3D928786C2810D0B6
:1018D00006DC4C281AD068280ED06A2817D104E0FC
:1018E000742813D07A2812D110E001204005044357
:1018F0000CE00121090501E0032109050C43697889
:10190000814203D10120000524186D1C6D1C28782C
:101910006E281ED00CDC632831D004DC00288BD06C
:10192000582811D1B2E064287BD069280CD178E026
:1019300073282DD004DC6F2870D0702804D1A7E064
:1019400075286CD078286BD0149A13999047761C20
:1019500062E06002400F022807D003280AD0042862
:1019600038680AD006603F1D56E03868F1170660F7
:101970004160F8E738680680F5E70670F3E73878E5
:10198000694608740020487404A80390012003E00D
:10199000386803900020C0433F1D61070FD5002128
:1019A00001E00199491C029A0191914213DA8142A6
:1019B000F7DB019A0399895C0029F2D10BE0002141
:1019C00001E00199491C01918142FADB019A0399D6
:1019D000895C0029F5D101990098139A401A00906A
:1019E0002146149B00F03CF901998019461807E044
:1019F000039803990078491C0391149A139990470E
:101A00000198401E0190401CF2D12146149B139A6C
:101A1000009800F015F986196D1C0AE741E033E0E3
:101A200034E00A200021049005916002410F022950
:101A300005D001CFC2179446032905D007E0FF1D4A
:101A4000FF08FF0003CF06E000B2C2179446042946
:101A500002D140B2C1178C4600226146944506DA95
:101A60000A460021404291418C462D2102E0210589
:101A700004D52B216A461176012103E0E10701D04C
:101A80002021F7E7019155E00A200BE0102009E042
:101A900010200490002104200443082005910290A6
:101AA00003E008200021059104906002410F022903
:101AB00005D001CF00229446032906D006E0FF1D81
:101AC000FF08FF0003CF8C4603E080B2042900D159
:101AD000C0B20021019121072CD5297803917029EA
:101AE00006D0049A1021059B4A401A4305D00EE007
:101AF00040216A461176012108E06146014306D083
:101B000030216A4611760399517602210191049A97
:101B10000821059B4A401A430CD16146014301D17B
:101B2000610707D530216A4611760121019102999A
:101B3000491E02912978582904D037A103910FA991
:101B40000F910DE039A1F9E76146059B049AFEF774
:101B50004AFB039B8C469B5C0F9A521E0F9213709C
:101B600061460143F0D10F9807A9081A203003906D
:101B7000600704D5012000048443029801E001209D
:101B800002900399884201DD401A00E000204118CC
:101B90000290019809180098401A0090E00306D4BA
:101BA0002146149B139A009800F05AF886190020D9
:101BB000049008E006A9085C149A139990470498C9
:101BC000401C761C049001998842F3DBE0030CD59D
:101BD0002146149B139A009800F042F8861904E0FD
:101BE000149A302013999047761C0299481E02904F
:101BF0000029F5DC08E00F980F990078491C0F9137
:101C0000149A13999047761C0399481E0390002953
:101C1000F1DCFAE609280100303132333435363749
:101C20003839616263646566000000003031323328
:101C300034353637383941424344454600000000C8
:101C4000F8B5044600251E461746880404D405E06E
:101C500039462020B0476D1C641EF9D52846F8BDD2
:101C6000FFB50446002581B01E46C80301D53027C4
:101C700000E02027880404D505E038460399B047E2
:101C80006D1C641EF9D5284605B0F0BD01B50748A6
:101C90000068009940180649086000BF04480068C1
:101CA000024909688842F9D808BD0000D400002024
:101CB000D800002070B50446A005800D002806D18C
:101CC0000120C006844202D3134884420BD900BFCE
:101CD00000F0D6FA054611A32A4612A112A0FFF77A
:101CE0006FFD00BF70BDFEF767FB3420FEF7E0FA22
:101CF0002046FEF7E3FA04280AD000BF00F0C0FA3D
:101D0000054606A32A4607A10FA0FFF759FD00BF0D
:101D1000FEF704FB00BFE5E7FF7F0008666C617318
:101D20006800000045000000257320282575292043
:101D300025733A2065726173652061646472206561
:101D400072726F720D0A00002573202825752920F4
:101D500025733A206572617365206572726F720D2A
:101D60000A000000F0B5A1B006460F461546802DCA
:101D70000CD900BF00F084FA044619A322461AA128
:101D80001AA0FFF71DFD00BF21B0F0BD2A4639465D
:101D900001A8FEF7F7F9FEF70FFB3420FEF788FAEB
:101DA000002415E0A20001AB9958A2009019FEF79B
:101DB000D7FA04280BD000BF00F062FA08A302464D
:101DC00009A1009009A0FFF7FBFC00BF03E0641C21
:101DD000A808A042E6D800BFFEF7A0FA00BFD3E7EC
:101DE000666C6173680000004500000025732028C0
:101DF0002575292025733A207772697465206572EC
:101E0000726F720D0A000000F8B505460E461746BF
:101E1000FEF7D2FA3420FEF74BFA002414E06200F9
:101E2000B15A62005019FEF781FA04280AD000BFA7
:101E300000F026FA07A3024608A1009008A0FFF7C9
:101E4000BFFC00BF601CC4B2BC42E8DBFEF766FA10
:101E5000F8BD0000666C617368000000450000007A
:101E6000257320282575292025733A2077726974F7
:101E700065206572726F720D0A00000070B504462D
:101E80000D46FEF799FA3420FEF712FA294620464D
:101E9000FEF74CFA04280AD000BF00F0F1F906461C
:101EA00004A3324605A106A0FFF78AFC00BFFEF797
:101EB00035FA70BD666C6173680000004500000073
:101EC000257320282575292025733A207772697497
:101ED00065206572726F720D0A00000070B50446CD
:101EE0000D46E1B20548FFF7D0FB00BF8021034853
:101EF000FFF7C4FB0028F9D0204670BD0044004025
:101F00001CB5012103204004FFF7C8F80122092174
:101F1000C806FEF7B1FB01220A210920C006FEF720
:101F2000ABFB012202210920C006FEF7A5FB01221E
:101F300003210920C006FEF79FFB184800900221EC
:101F4000684601710321417100218171C1716946A7
:101F50000920C006FEF758FB0320009001216846C7
:101F6000017100218171032141710121C171694613
:101F70000920C006FEF748FB022000906946084889
:101F8000FEF742FB01210920C006FEF785FB022176
:101F90000920C006FEF780FB1CBD00000C060000F7
:101FA00000040048F8B500213D483E4C82783E4D83
:101FB000FF380138EE78237A8078E5793B4F062A9E
:101FC00003D1062801D1E02E02D0062A1DD118E047
:101FD000862D07D1042B05D100203870A070012078
:101FE000FEF7A6FAE079812801D10020607200F0A6
:101FF00047F902462EA330A130A0FFF7E1FB0220F3
:10200000F8BD062801D1892E09D000F039F9024621
:1020100027A329A130A0FFF7D3FB0320F8BD0020A0
:1020200005E0214E3618B6787140401CC0B282429D
:10203000F7D8002909D000F023F902461CA31EA1FD
:102040002EA0FFF7BDFB0120F8BD0120344E802DEE
:1020500004D0812D07D0862D20D114E03870304671
:1020600000F072F91AE038700F49087949790002D6
:10207000084320800121C905401800F065F9304669
:1020800000F062F90AE0042B08D13978012905D162
:1020900000213970A0700120FEF74AFA0020F8BD37
:1020A0003C020020420300203C01002010010020DF
:1020B0004952204374726C004500000025732028AB
:1020C0002575292025733A20495220636D642069C3
:1020D0006E76616C696400002573202825752920BF
:1020E00025733A20495220636D642061636B20663A
:1020F0006F726D6174206572726F72002573202893
:102100002575292025733A20495220636D6420618A
:10211000636B20786F72206572726F72000000002E
:10212000050486007CB56B46187001245C709970BC
:10213000DA7000251D7160405140484058710621F9
:10214000684600F0FDF87CBD70B504460020C04331
:102150000549086065682E46206880F3088800BF3E
:10216000B047012070BD000080E100E010B5FFF72E
:102170007FF80E490E4841610E490722CB691B02C8
:102180001B0A44042343CB61002181610261FFF7F4
:10219000B7FE00F0ADF8FEF78BFAFEF7DFFDFEF7B5
:1021A0002BF900F08DF8002010BD00007FBB00006F
:1021B00000E000E004ED00E070B5FF22FF23094DD0
:1021C000EE1DF93605E00478401C54402A5D5A4063
:1021D000335D0C46491E89B2002CF4D1180210431D
:1021E00070BD0000C425000808B5234801882348B5
:1021F000408A81420BD021490122498AD2051143EC
:10220000084600F0A1F81D481B49408A08801A487A
:10221000407A002805DD18481749407A401E487268
:1022200008BD684600F032F8002823D00098124913
:102230000002000EC87100980004000E08720846E3
:10224000C079862802D10F2048720AE00A48C07976
:10225000812803D108496420487202E0064902201F
:102260004872009BDAB21B04190E009B1B02180E69
:10227000FFF758FF00BFD3E7420300207C04002093
:102280000148006870470000D400002010B50B4CD6
:10229000A17900290FD02279216892008958016024
:1022A0002079E179401CFDF743FF2171A079401EA0
:1022B000A071012010BD002010BD000014010020FD
:1022C000084900200880084908800849088008E07B
:1022D0000448FFF73BF80448FFF7B4F80348FFF75A
:1022E0002BF9F5E7E4000020EC000020F4000020CA
:1022F00008B501218803FEF7EDFE01214804FEF731
:10230000DBFE1B2168460170012141708170FEF7E0
:1023100091FE1C2168460170FEF78CFE05480649B7
:1023200088812D200860FF20A230044988812D205B
:10233000086008BD881300000038014000440040D8
:1023400010B5FFF7A7F910BD10B50E4CA179E279D1
:1023500091420DD262792168920088506079E179CA
:10236000401CFDF7E5FE6171A079401CA07110BD15
:10237000FFF786FF024604A306A107A0FFF720FA95
:1023800010BD00001401002052696E674275666638
:10239000657200004500000025732028257529205E
:1023A00025733A20627566666572206973206675CA
:1023B0006C6C000010B53C210348FDF7FCFE02499F
:1023C0000120086010BD00009C030020F8B5054600
:1023D00014461E46794F0020B8632878182802D189
:1023E0006978182908D039680B00FFF7F9F907E474
:1023F0000C1468B5E4C6E4003C217048FDF7DBFE30
:1024000000203860F8BD4320207001203080022079
:1024100038600120F8BD012805D16878002802D174
:10242000A878FF2803D000203080401EF8BD00208F
:1024300003E03A181171401C80B22918C9780029AC
:1024400001D08028F5D3802802D30020C043F8BDF6
:1024500000213A181171001D80B28446002007E067
:10246000FA690A235A43303A8918F961401C80B24C
:1024700061460918695C0A46303A0A2A01D20A28DC
:10248000EED3F8697F30C0097862012149028842A1
:102490000BD9182020706070022030803C21474802
:1024A000FDF789FE0020C043F8BD062020704320C0
:1024B000607002203080032038600120F8BD822146
:1024C000E81CFFF739F9002805D0152020700120FD
:1024D0003080801EF8BD2878012805D1386A6978D7
:1024E000421CD2B2914218D0386A6978401C8142AD
:1024F00004D2062020700120308008E018202070CF
:102500006070022030803C212C48FDF754FE786B2F
:10251000401C78630020C043F8BD796B491C796387
:102520002749C00140188022E91CFFF71BFC386ACC
:10253000401C3862796A884206D306202070012048
:1025400030800420386003E00620207001203080B5
:10255000002078630120F8BD042805D0786B401C6A
:1025600078630020C043F8BD0620207043216170CD
:102570000221318038600020F8BD012805D168783B
:10258000002802D1A878FF2809D01520207001204A
:102590003080786B401C78630020C043F8BD3C213C
:1025A0000648FDF708FE062020700120308000203C
:1025B00038600220F8BD0020C043F8BD9C03002015
:1025C0000020000800C1814001C0804101C080415D
:1025D00000C1814001C0804100C1814000C18140F3
:1025E00001C0804101C0804100C1814000C18140E3
:1025F00001C0804100C1814001C0804101C08041D3
:1026000000C1814001C0804100C1814000C18140C2
:1026100001C0804100C1814001C0804101C08041B2
:1026200000C1814000C1814001C0804101C08041A2
:1026300000C1814001C0804100C1814000C1814092
:1026400001C0804101C0804100C1814000C1814082
:1026500001C0804100C1814001C0804101C0804172
:1026600000C1814000C1814001C0804101C0804162
:1026700000C1814001C0804100C1814000C1814052
:1026800001C0804100C1814001C0804101C0804142
:1026900000C1814001C0804100C1814000C1814032
:1026A00001C0804101C0804100C1814000C1814022
:1026B00001C0804100C1814001C0804101C0804112
:1026C00000C1814000C0C101C30302C2C60607C7E2
:1026D00005C5C404CC0C0DCD0FCFCE0E0ACACB0B52
:1026E000C90908C8D81819D91BDBDA1A1EDEDF1F82
:1026F000DD1D1CDC14D4D515D71716D6D21213D372
:1027000011D1D010F03031F133F3F23236F6F73721
:10271000F53534F43CFCFD3DFF3F3EFEFA3A3BFB11
:1027200039F9F83828E8E929EB2B2AEAEE2E2FEFC1
:102730002DEDEC2CE42425E527E7E62622E2E32331
:10274000E12120E0A06061A163A3A26266A6A76761
:10275000A56564A46CACAD6DAF6F6EAEAA6A6BABD1
:1027600069A9A86878B8B979BB7B7ABABE7E7FBF01
:102770007DBDBC7CB47475B577B7B67672B2B373F1
:10278000B17170B0509091519353529296565797A1
:10279000559594549C5C5D9D5F9F9E5E5A9A9B5B91
:1027A00099595898884849894B8B8A4A4E8E8F4F41
:1027B0008D4D4C8C448485458747468682424383B1
:1027C00041818040E4270008C00000207C00000018
:1027D000FA170008602800083C0100206C07000080
:1027E0000A180008006CDC02000000000000000075
:1027F00001020304060708090000000000000000B1
:1028000000000000000000000000000000000000C8
:1028100000000000000000000000000000000000B8
:1028200000FF6F50A55A3826FE000000000000008F
:1028300000000000000000004C0300200000001415
:10284000000000005C040020000000000800000000
:102850007C040020000000000B00000000000000CD
:04000005080000C12E
:00000001FF
