:020000040800F2
:10200000200A0020D9200008FF2000080121000834
:1020100000000000000000000000000000000000C0
:102020000000000000000000000000000321000884
:102030000000000000000000052100087D350008B8
:1020400009210008000000000921000809210008FA
:1020500009210008092100080921000809210008B8
:1020600000000000092100080921000809210008DA
:1020700009210008092100080921000800000000CA
:1020800009210008000000000000000009210008EC
:1020900000000000092100080921000809210008AA
:1020A000000000000921000800000000D1380008ED
:1020B0004939000800000000000000000921000864
:1020C0000448854600F08AF900480047BD4B0008E7
:1020D000C046C046200A00200C4880F308880C48FF
:1020E0000168090E0B4A914205D10B480B4901606A
:1020F0000B480C4901600C4880470C480047FEE73C
:10210000FEE7FEE7FEE7FEE7FEE70000200A00200C
:10211000040000001F000000181002400100000031
:10212000000001400000000089360008C1200008BE
:1021300030B50B46014600202022012409E00D465F
:10214000D5409D4205D31D469540491B25469540E7
:1021500040191546521E002DF1DC30BD70B500242B
:102160002546002801DA01244042002901DA012530
:102170004942FFF7DDFFAC4200D04042002C00D0C6
:10218000494270BD03460B439B0703D009E008C9D1
:10219000121F08C0042AFAD203E00B780370401C17
:1021A000491C521EF9D27047D2B201E00270401CA5
:1021B000491EFBD270470022F6E710B513460A46C7
:1021C00004461946FFF7F0FF204610BD421C017877
:1021D000401C0029FBD1801A704730B5044600200E
:1021E000034600E05B1C934203D2E05CCD5C401BE5
:1021F000F8D030BD30B505460020034600E05B1C3A
:10220000934205D2EC5CC85C201A01D1002CF6D1B7
:1022100030BD000070B5104D002800D128680024A2
:1022200014E00A4602E09E4203D0521C1378002BB1
:10223000F9D1DAB2224307D0002B06D0002C04D00B
:1022400000210170401C04E00446401C0678002E6A
:10225000E7D12860204670BD94010020F7B5009CAE
:102260000F4600262578641C002D05D000F05EF88E
:102270000068405DC007F5D12B2D02D02D2D18D060
:10228000641E39462046029A00F054F8002F04D00C
:102290003968A14201D100993960710502240029F1
:1022A0000BDA4042002803DD01F02CFC0460A0079B
:1022B000FEBD012080020643E3E70028F8DA01F0C2
:1022C00021FC04600048FEBDFFFFFF7FF0B51FB496
:1022D0000646002082B005464024019100901BE094
:1022E000019922460F46304600F09AF8049A059B61
:1022F000801A994110D310461946224600F080F802
:10230000361A8F410197224601200021009F00F0DC
:1023100077F838184D4100902046641E0028DFDC15
:10232000019B00982946324607B0F0BD004870472F
:1023300058540008F7B582B0029C00272078641C2E
:1023400015460197302802D0002D15D015E02078D1
:102350000127641C782804D0582802D0002D09D009
:102360000BE0002D01D0102D07D10027102520787B
:10237000641C02E0082500E00A250026009610E013
:102380000099012769430818020C294680B271435D
:1023900000908E183804864201D3012001902078E5
:1023A000641C294600F04DF80028E9DA039800285B
:1023B00005D0002F01D0641E00E0029C046001984B
:1023C000002806D001F09EFB02210160C81E05B066
:1023D000F0BD009930040843F9E70000064C0125E0
:1023E000064E05E0E36807CC2B430C3C98471034BD
:1023F000B442F7D3FFF768FE80540008A0540008E9
:1024000010B5202A04DB0146203A9140002010BD7F
:10241000914020239C1A0346E3401943904010BD8D
:1024200010B5202A04DB0846203AD040002110BD18
:102430000B46D340D0402024A21A914008431946AD
:1024400010BD3A2800D23038202302469A43412A50
:1024500001D310463738884201D30020C04370476B
:1024600038B504461E4800681E490968401A6428A9
:102470000BD200BF02F03CFD05461BA32A461EA15D
:102480001EA001F01BFB00BF38BD00BF02F030FDF5
:10249000054615A32A4618A11FA0009401F00EFBC3
:1024A00000BF2046FFF792FE1E280BD900BF02F0A6
:1024B0001FFD05460CA32A461EA11FA001F0FEFA2F
:1024C00000BFE1E72046FFF781FEC5B2294620465E
:1024D00001F084FA024800680249086000BFD3E7AF
:1024E000D400002074010020426C6520436D6420FC
:1024F00050726F63657373004900000025732028D4
:102500002575292025733A20436D6420746F6F2050
:10251000666173740D0A0000257320282575292033
:1025200025733A2053656E6420636D643A25730DFC
:102530000A00000045000000257320282575292089
:1025400025733A20436D6420746F6F206C6F6E6743
:102550000D0A00000149C8607047000000200240D9
:1025600030B5044604250B20000400F07BF8054636
:10257000042D17D10C480069022108430A4908615B
:1025800008464461006940210843074908610B205F
:10259000000400F067F805460348006902218843FB
:1025A00001490861284630BD0020024004200D4941
:1025B000C968C907C90F002901D0012010E00949E5
:1025C000C96810221140002901D0022008E0054905
:1025D000C96804221140002901D0032000E0042032
:1025E0007047000000200240034800698021084332
:1025F00001490861704700000020024070B50446A0
:102600000D4604260B20000400F02CF80646042E8C
:1026100011D10A4800690121084308490861258051
:102620000B20000400F01EF806460448006940082C
:10263000400002490861304670BD000000200240A1
:102640000548006980210840002804D00348024959
:1026500048600348486070470020024023016745F6
:10266000AB89EFCD10B503460424FFF79FFF044666
:1026700003E0FFF79BFF04465B1E012C01D1002BFA
:10268000F7D1002B00D10524204610BD00203A4987
:1026900008600DE03848006838494018008838491B
:1026A000884200D10AE0344800680A3032490860A4
:1026B000314800687D21C9008842EBD300BF2E4815
:1026C0000068002853D02C4800682C494018403836
:1026D000C08E8007C10F2B48C1802748006827495A
:1026E00040184038C08E4007C10F2648C18222489A
:1026F0000068224940184038008FC1B22248418604
:102700001D4800681D4940184038408FC1B21E481E
:10271000418319480068194940184038408F011218
:102720001948C18314480068144940184038808F04
:10273000C1B215484184104800681049401840381B
:10274000808F01121048C1840B4800680B49401863
:102750004038C08FC1B20C4841850748006807491E
:1027600040184038C08F01120748C18502E000219F
:102770000448C18070470000DC0000200078000899
:10278000FFFF0000B0050020DC0500200EB5002092
:102790000090019002902D4800687D21C900884278
:1027A00005D92B4801F040FC002028490860684604
:1027B000008828498979C907890F01436846018043
:1027C00000882449897DC907490F01436846018073
:1027D0004088214989780143684641801E48303845
:1027E000418B6846818080881B493039897F090286
:1027F000084381B26846818017483038418C68466A
:10280000C180C08814490C3989780902084381B213
:102810006846C18010483038418D68460181008982
:102820000D49091F89780902084381B26846018170
:1028300006490968064A88180522694601F04CFCD9
:10284000024800680A30014908600EBDDC00002023
:1028500000780008B00500200C060020F0B50A46FC
:1028600000210023002400BF3DE001258D402B46C0
:1028700015681D402C469C4234D11579012D02D09B
:102880001579022D16D185684F000326BE40B54349
:10289000856055794E00B5408668354385608588EA
:1028A00001268E40B5438580858896798E40B6B2E4
:1028B0003543858005684F000326BE40B54305605B
:1028C00015794E00B540066835430560C5684F0070
:1028D0000326BE40B543C560D5794E00B540C668F5
:1028E0003543C560491C1029BFD3F0BDF0B50023A6
:1028F00000244D07EE0E1546B5402B46CD10AE0018
:1029000005462035AD594E07F70E0F26BE40B5439C
:10291000CE10B60007462037BD51CD10AE003D4663
:10292000AD591D432C46CD10AD003E467451F0BD4F
:10293000018570478161704701480249086070470E
:10294000AAAA00000030004038B51648C0885528B3
:1029500018D01448C0881449884202D0114801F0A8
:1029600063FB00BF02F0C4FA054610A32A4611A17A
:1029700011A001F0A3F800BF552421460948801D8D
:1029800001F0E4FB1C48006800280AD1C82001F0CF
:1029900037FB1AA0006800900321684601F034F864
:1029A00000BF38BD007C0008FFFF00006D61696E4C
:1029B000000000004900000025732028257529200B
:1029C00025733A20666972737420706F7765722080
:1029D0006F6E206F72204941502073756363657379
:1029E000732C207772697465206170702072756E27
:1029F00020666C61670D0A00A8040020FF6FFE00CE
:102A000038B51448807808281DD108221249114889
:102A1000FE38FFF7E2FB002815D1104801F004FB57
:102A2000552421460D4801F091FBAA2421460B486C
:102A3000801C01F08BFB432000900121684600F0D0
:102A4000E3FF00F075FC06480068002800D138BD9F
:102A50000020FCE7A3030020F8000020007C000811
:102A6000A804002010B50A210B480078FFF776FB78
:102A7000002905D101210920C006FFF759FF04E014
:102A800001210920C006FFF755FF03480078401CCC
:102A90000149087010BD00001001002010B5144855
:102AA0004078062815D006DC012809D003280AD072
:102AB000052817D10AE00F280ED0102812D10EE0F9
:102AC00000F034F812E000F0E5F80FE000F052F901
:102AD0000CE000F083F909E000F0AAF906E000F04C
:102AE000F9F903E0012000F06BFB00BF00BF10BD4F
:102AF0002C05002010B50B480078042810DB09488D
:102B00000178403802F09CF8002809D10548403887
:102B10000078782804D1FFF7C1FF0120024908702E
:102B200010BD00006C05002078010020F0B593B0C6
:102B3000402102A8FFF73FFB5448007900025349A7
:102B40004979401885B2012D01DB0B2D04DD0320EE
:102B500000F036FB13B0F0BD4C48807800024B49C2
:102B6000C978401886B24A488088B04205DC70199E
:102B7000401E4749C988884203DD022000F020FB3F
:102B8000E8E7E81DC117490F09184903090C12911C
:102B9000002404E0002002A90855601C84B21298A9
:102BA0008442F7DB00242AE0311988B200F026FACB
:102BB00001900198002802D0012819D100E01BE003
:102BC0002046E217520F1218D21002AB9A5C21462F
:102BD000E3175B0F5B18DB10DB00E71A0123BB4038
:102BE0001A43E3175B0F1B18DB1002AFFA5403E024
:102BF000042000F0E5FAADE700BF601C84B2AC42EF
:102C0000D2DB00212148803081708038017880300B
:102C100082788078401CC3B21C48803083703E3874
:102C2000815442384178803082788078401CC3B229
:102C30001648803083703E3881541298C1B21348D0
:102C4000803082788078401CC3B210488030837016
:102C50003E38815400240EE002A8015D0B4880300C
:102C600082788078401CC3B20848803083703E3838
:102C70008154601C84B212988442EDDB034880309A
:102C800081783E3800F0CAFA00BF63E72C050020C7
:102C90007C01002070B5354800790002334949793C
:102CA000084304463148807800023049C978084317
:102CB0000546012C01DB222C03DD032000F080FA05
:102CC00070BD2B488088A84205DC2819401E284981
:102CD000C988884203DD022000F072FAF0E7002183
:102CE0002248803081708038017880308278807806
:102CF000401CC3B21D48803083703E388154423836
:102D00004178803082788078401CC3B21748803088
:102D100083703E3881546006010E144880308278FA
:102D20008078401CC3B21148803083703E38815493
:102D3000E2B23E3083783E381918284600F07AF91E
:102D40000646002E03D1042000F03AFAB8E70748FF
:102D50008030807861004018C1B2044880308170B2
:102D600081783E3800F05AFA00BFA9E72C05002010
:102D70008801002070B5174800790002154949798B
:102D8000401885B2002D07D0FF200002854203D0F5
:102D9000032000F015FA70BD0E48807800020D493E
:102DA000C978401884B20C488088A0420DDC0A48DB
:102DB000C088A04209DB2946204600F06DF90128B1
:102DC00006DD042000F0FCF9E5E7022000F0F8F948
:102DD00000BFE0E72C0500207C01002070B5124800
:102DE000807800021049C978084304460F4880885B
:102DF000A04203DC0D48C088A04203DA022000F0A4
:102E0000DFF970BD01220849091D204600F09AF93A
:102E10000546002D03D1042000F0D2F9F1E700208F
:102E200000F0CEF900BFECE72C050020880100205F
:102E300070B526480079000224494979401884B2C7
:102E4000012C01DB0B2C03DD032000F0B9F970BD70
:102E50002046E117490F091849050E0EE117490FE1
:102E60000918C910C900611A01D0701CC6B21748F0
:102E70008079B04203D0032000F0A2F9E7E71348BD
:102E8000807800021149C978401885B210488088BE
:102E9000A84205DC2819401E0D49C988884203DD77
:102EA000022000F08DF9D2E7084AD21D21462846BB
:102EB00000F014F9012803DD042000F081F9C6E7D1
:102EC000002000F07DF900BFC1E700002C050020C4
:102ED0007C01002070B51B4800790002194949792E
:102EE000084304461748807800021649C978084309
:102EF0000546012C01DB222C03DD032000F060F9E4
:102F000070BD11488088A84205DC2819401E0E4972
:102F1000C988884203DD022000F052F9F0E7E2B2EE
:102F20000849C91D284600F00DF90646002E03D1B8
:102F3000042000F045F9E3E7002000F041F900BF6C
:102F4000DEE700002C05002088010020018042807F
:102F5000704701804280704710B520482049888022
:102F60001E480A30C880002309E099001D4A8818CD
:102F700000221A495918FFF7E9FF581CC3B20B2B5E
:102F8000F3DB1948194988801948C88000230BE0F1
:102F9000174A521E9A1891B29A00164C1019002224
:102FA000FFF7D7FF581CC3B2052BF1DB00230BE062
:102FB000114A9A1891B25A1D92000E4C1019002213
:102FC000FFF7C7FF581CC3B20C2BF1DB782009496F
:102FD0004880E4210748C18010BD0000E02E0000B9
:102FE0007C010020B005002050C3000088010020B3
:102FF00079E60000DC05002038C7000010B5034664
:10300000002111E088000A4A105A98420AD188002B
:10301000144600194288D00F801840104000101A42
:10302000C0B210BD481C81B20B29EBDBC8B2F8E777
:10303000B005002070B505460B461446002124E07B
:103040008800144E305AA8421DD10819401E800035
:10305000305A2E19761EB04215D100220FE0881882
:1030600080000C4E80194088001218705B1C881874
:1030700080008019807818705B1C501CC2B2A2427C
:10308000EDDB012070BD481CC1B21129D8DB002046
:10309000F8E70000DC05002030B502460B460021B1
:1030A00015E088000C4C205A90420ED1002B05D020
:1030B00001208C00084D6419608004E000208C0021
:1030C000054D64196080012030BD481C81B20B2978
:1030D000E7DBC8B2F8E70000B0050020F7B50C4602
:1030E000002208E09000164B1B5A0098834200D142
:1030F00003E0501C82B20B2AF4DB00BF0B2A01DB79
:103100001046FEBD002117E00846CD176D0F2D18A3
:10311000EE10029DAD5D0B46CE17760FF618F61039
:10312000F6008E1B3541ED07ED0F5618B600044F23
:10313000F6197580481C81B2A142E5DB0120E0E769
:10314000B0050020F0B505460B461446002129E0E5
:103150008800164E305AA84222D10819401E80001D
:10316000305A2E19761EB0421AD1002214E01E7871
:103170005B1C30028E18B6000C4FF6197080187860
:103180005B1C8E18B600F619768830438E18B60090
:10319000F6197080501CC2B2A242E8DB0120F0BDDB
:1031A000481CC1B21129D3DB0020F8E7DC05002060
:1031B00070B504460D462946204600F025FC70BD3A
:1031C00010B50446002C0FD0782113488170403888
:1031D0004078802108431049891C48700846847053
:1031E00003213E3081700FE0002006E00A4940399B
:1031F0000A5C42310A54411CC8B20628F6DB06229A
:10320000054940318A7000BF0348403081783E381C
:1032100000F004F810BD00006C05002070B50446F5
:103220000D462946204601F00BFD06462846691C3E
:10323000CDB2265432122846691CCDB222542946FA
:103240002046FFF7B5FF70BD00218278002A27D005
:10325000184A03231B02D21803789B109B00D158F5
:1032600002789207D30EFF229A400B4693431946E9
:1032700042789207120E03789B07DB0E9A401143A7
:103280000C4A03231B02D21803789B109B00D150D9
:103290000278D306DB0E01229A40064B1A6007E043
:1032A0000278D306DB0E01229A40024B80331A606B
:1032B0007047000000E100E010B5002819DA1A4A52
:1032C00003071B0F083B9B089B00D2588307DC0EAB
:1032D000FF23A3409A438B071B0E8407E40EA340F1
:1032E0001A43114B0407240F083CA408A4001A51E8
:1032F00018E00E4A03231B02D21883089B00D25801
:103300008307DC0EFF23A3409A438B071B0E840721
:10331000E40EA3401A43054B032424021B1984081E
:10332000A4001A5110BD00001CED00E000E100E017
:10333000BFF34F8F03480449C860BFF34F8F00BFEE
:10334000FEE700000400FA0500ED00E0002905D0CA
:10335000054A52690243044B5A6104E0024A526929
:103360008243014B5A61704700100240002905D08A
:10337000054AD2690243044BDA6104E0024AD26989
:103380008243014BDA61704700100240002905D0EA
:10339000054A92690243044B9A6104E0024A926929
:1033A0008243014B9A61704700100240002905D00A
:1033B000054AD2680243044BDA6004E0024AD2684C
:1033C0008243014BDA607047001002400146002042
:1033D000044A10688008800002460A431046014AE9
:1033E00010607047000001400CB500200190009073
:1033F0004E4800680121090408434C49086000BF99
:103400004A48006801214904084000900198401C86
:1034100001900098002804D10521090301988842F1
:10342000EED142480068012149040840002802D03A
:103430000120009001E000200090009801283AD17E
:1034400011203B49086039484068384948600846BF
:1034500040684860084640687F21C9038843334973
:103460004860084640681121090408432F49486014
:10347000084600680121090608432C49086000BF7E
:103480002A4800680121490608400028F8D027484A
:10349000406880088000254948600846406802214D
:1034A00008432249486000BF204840680C2108407A
:1034B0000828F9D138E011201D4908601B484068F0
:1034C0001A494860084640684860084640687F21BD
:1034D000C90388431549486008464068C900084345
:1034E00012494860084600680121090608430F494F
:1034F000086000BF0D480068012149060840002807
:10350000F8D00A48406880088000084948600846AA
:103510004068022108430549486000BF03484068ED
:103520000C2108400828F9D10CBD00000010024011
:103530000020024010B50E480078002805D0002079
:103540000C4908600A4908700EE00A480068401CEF
:1035500008490860084600680749884204D90020E5
:1035600004490860FFF7E4FEFFF7E6F910BD00002C
:103570007801002014010020102700001348006883
:10358000401C124908601248007800280CD01048EE
:103590000078401C0E49087008460078142803DDA6
:1035A00001204870002008700A48007800280CD0DC
:1035B00008480078401C074908700846007805282C
:1035C00003DD01204870002008707047D4000020FF
:1035D000A0010020A3020020F8B500250024002649
:1035E0000027244840680C2108400546002D04D0DF
:1035F000042D06D0082D2AD107E01F481F49086076
:1036000029E01D481D49086025E01A4840680F213F
:10361000890408400446174840680321C90308404C
:103620000646A00C841C002E04D1154860431349A3
:1036300008600BE00F48C06A0007000F471C3946BE
:103640000D48FEF775FD60430C49086003E00A4829
:103650000A49086000BF00BF06484068F0210840E2
:10366000000908490D5C05480068E8400349086006
:10367000F8BD00000010024000127A00C0000020D7
:1036800000093D00C400002010B51B48006801215E
:103690000843194908600846406818490840164917
:1036A0004860084600681649084013490860084603
:1036B00000680121890488430F4908600846406872
:1036C0003F21090488430C4948600846C06A000944
:1036D0000001C8620846006BFF2154318843064947
:1036E00008630846406B400840004863002088603B
:1036F000FFF77AFE10BD0000001002400CB8FFF882
:10370000FFFFF6FE38B504462088002802D03D2889
:103710002ED104E02BE000BF3D20208000BF1648E2
:103720004078002800D138BD00BF00BF01F0E0FBA9
:1037300005461148801C11A32A4611A1009011A032
:1037400000F0BCF900BF194882780146FE391848DC
:10375000FEF718FD164801F0C7FCFF21013114489F
:10376000FEF729FDFF2104310348FEF724FDD2E7CF
:10377000002020800220D6E7A001002041707000C8
:1037800049000000257320282575292025733A203B
:10379000626C652064617461207265636569766539
:1037A000643A202573200D0A00000000A0020020CA
:1037B000A603002038B504462088002802D05528EA
:1037C0003AD104E037E000BF5520208000BF1C48FC
:1037D0004078002800D138BD00BF00BF01F088FB51
:1037E00005461748801C17A32A4617A1009017A06A
:1037F00000F064F900BF1F488178FE3800F0EEF851
:10380000FFF7FEF8002811D11A48807840280DDA19
:10381000184882780146FE391748FEF7B3FC154870
:103820008178154840300170FFF764F9FF210431B9
:103830000348FEF7C0FCC6E7002020800220CAE74C
:10384000A302002041707000490000002573202869
:103850002575292025733A20626C652064617461A6
:103860002072656365697665643A202573200D0AC8
:1038700000000000A30300202C05002010B5044622
:103880002088002802D07C281ED112E01BE001F025
:10389000F3F901F033FBFFF7E5F8FFF74BFE00F01B
:1038A000DDF800BF01F024FB606000BF7C202080B9
:1038B00000BF01F01DFB6168401A642801D200209E
:1038C00010BD00BF00BFE2E7002020800220F7E724
:1038D0001A48C06920210840002810D0174820301D
:1038E0008088C1B2164882788078401CC3B21448E0
:1038F0008370FE3881540120124908701CE00F4883
:10390000C06902210840002803D002200B49086248
:1039100012E00A48C06904210840002803D00420AE
:103920000649086208E00548C069082108400028E7
:1039300002D00820014908627047000000380140A9
:10394000A0020020A00100201A48C06920210840E0
:10395000002810D0174820308088C1B216488278DD
:103960008078401CC3B214488370FE388154012013
:10397000124908701CE00F48C06902210840002865
:1039800003D002200B49086212E00A48C0690421F2
:103990000840002803D004200649086208E00548D2
:1039A000C06908210840002802D0082001490862A7
:1039B0007047000000440040A3030020A302002041
:1039C00002460020D3690B40002B01D0012000E00B
:1039D00000207047CA05D20D0285704710B5024617
:1039E00000200CE0135C074C238100BF054B203BFB
:1039F000DB6980242340002BF8D0431CD8B28842D6
:103A0000F0DB10BD2038014070B504460D460221A0
:103A10000920C006FEF78EFF00200CE0215C0E4A54
:103A2000118100BF0C492039C96980221140002949
:103A3000F8D0411CC8B2A842F0DB00BF06482038CD
:103A4000C069402108400028F8D002210920C006A2
:103A5000FEF76EFF70BD00002044004008B5164818
:103A60000068002827D01448806B401C12498863E6
:103A70000846806B1E280CD90846406B401C4863E2
:103A80000020886315206946087001216846FFF709
:103A9000BBFF0948406B05280CDD3C210648FEF7BA
:103AA0008AFB18216846017041700221FFF7ACFFC4
:103AB000FFF73EFC00BF08BDA80400200FB410B5FE
:103AC00003A9044B044A029800F030F810BC08BC6B
:103AD00004B01847AD410008980100200FB410B59C
:103AE00004A9074B02AA039800F020F8044602A993
:103AF000002000F055FA204610BC08BC04B018475E
:103B0000A13F0008004870479C01002002E008C85F
:103B1000121F08C1002AFAD170477047002001E047
:103B200001C1121F002AFBD170470000FFB591B000
:103B30000F460546002606E025280AD0149A139958
:103B400090476D1C761C28780028F5D1304615B0BA
:103B5000F0BD002400940121F34A029400E00443E4
:103B60006D1C2B780846203B98401042F7D12878EE
:103B70002A280ED00222287801463039092915D882
:103B800000990A2359433039401814436D1C0090A2
:103B9000F1E701CF0090002805DA0120400304433B
:103BA000009840420090022004436D1C28782E2883
:103BB00015D10420044368786D1C2A280AD101CF4E
:103BC0006D1C02900BE002990A22514330394018D3
:103BD0006D1C02902878014630390929F3D92878DC
:103BE0006C2810D006DC4C281AD068280ED06A2821
:103BF00017D104E0742813D07A2812D110E00120E4
:103C0000400504430CE00121090501E003210905F9
:103C10000C436978814203D10120000524186D1CF2
:103C20006D1C28786E281ED00CDC632831D004DC93
:103C300000288BD0582811D1B2E064287BD06928A5
:103C40000CD178E073282DD004DC6F2870D0702858
:103C500004D1A7E075286CD078286BD0149A1399FA
:103C60009047761C62E06002400F022807D00328CC
:103C70000AD0042838680AD006603F1D56E038682C
:103C8000F11706604160F8E738680680F5E70670CE
:103C9000F3E73878694608740020487404A8039054
:103CA000012003E0386803900020C0433F1D6107F6
:103CB0000FD5002101E00199491C029A019191421E
:103CC00013DA8142F7DB019A0399895C0029F2D16A
:103CD0000BE0002101E00199491C01918142FADBCE
:103CE000019A0399895C0029F5D101990098139AEA
:103CF000401A00902146149B00F03CF9019980196C
:103D0000461807E0039803990078491C0391149A18
:103D1000139990470198401E0190401CF2D1214612
:103D2000149B139A009800F015F986196D1C0AE788
:103D300041E033E034E00A20002104900591600264
:103D4000410F022905D001CFC2179446032905D09F
:103D500007E0FF1DFF08FF0003CF06E000B2C21717
:103D60009446042902D140B2C1178C460022614614
:103D7000944506DA0A460021404291418C462D21A5
:103D800002E0210504D52B216A461176012103E0CA
:103D9000E10701D02021F7E7019155E00A200BE06F
:103DA000102009E010200490002104200443082082
:103DB0000591029003E00820002105910490600223
:103DC000410F022905D001CF00229446032906D0D5
:103DD00006E0FF1DFF08FF0003CF8C4603E080B222
:103DE000042900D1C0B20021019121072CD52978E6
:103DF0000391702906D0049A1021059B4A401A436A
:103E000005D00EE040216A461176012108E06146A6
:103E1000014306D030216A4611760399517602217A
:103E20000191049A0821059B4A401A430CD161462E
:103E3000014301D1610707D530216A46117601217E
:103E400001910299491E02912978582904D037A17D
:103E500003910FA90F910DE039A1F9E76146059B88
:103E6000049AFEF733FA039B8C469B5C0F9A521E12
:103E70000F92137061460143F0D10F9807A9081AF9
:103E800020300390600704D5012000048443029889
:103E900001E0012002900399884201DD401A00E010
:103EA000002041180290019809180098401A0090CB
:103EB000E00306D42146149B139A009800F05AF8A8
:103EC00086190020049008E006A9085C149A13994A
:103ED00090470498401C761C049001998842F3DBBB
:103EE000E0030CD52146149B139A009800F042F889
:103EF000861904E0149A302013999047761C029991
:103F0000481E02900029F5DC08E00F980F99007810
:103F1000491C0F91149A13999047761C0399481ED7
:103F200003900029F1DCFAE6092801003031323330
:103F300034353637383961626364656600000000E5
:103F400030313233343536373839414243444546CF
:103F500000000000F8B5044600251E4617468804F8
:103F600004D405E039462020B0476D1C641EF9D505
:103F70002846F8BDFFB50446002581B01E46C8039B
:103F800001D5302700E02027880404D505E0384615
:103F90000399B0476D1C641EF9D5284605B0F0BDE5
:103FA0000A68531C0B601070704730B502460B4610
:103FB0000021002020E0145C302C07DB145C392C3D
:103FC00004DC0D01145C303C291914E0145C412C14
:103FD00007DB145C462C04DC0D01145C373C29190A
:103FE00009E0145C612C06DB145C662C03DC0D011B
:103FF000145C573C2919401C9842DCDB084630BD54
:1040000001B507480068009940180649086000BFDC
:1040100004480068024909688842F9D808BD0000D0
:10402000D4000020D800002070B50446A005800D03
:10403000002806D10120C006844202D313488442DE
:104040000BD900BF00F054FF054611A32A4612A168
:1040500012A0FFF733FD00BF70BDFEF7F1FA342068
:10406000FEF778FA2046FEF77BFA04280AD000BF54
:1040700000F03EFF054606A32A4607A10FA0FFF762
:104080001DFD00BFFEF7B0FA00BFE5E7FF7F0008A7
:10409000666C6173680000004500000025732028ED
:1040A0002575292025733A20657261736520616446
:1040B0006472206572726F720D0A000025732028E9
:1040C0002575292025733A20657261736520657214
:1040D000726F720D0A000000F8B505460E461746CD
:1040E000FEF7AEFA3420FEF735FA002414E0620041
:1040F000B15A62005019FEF781FA04280AD000BFB5
:1041000000F0F6FE07A3024608A1009008A0FFF702
:10411000D5FC00BF601CC4B2BC42E8DBFEF764FA09
:10412000F8BD0000666C6173680000004500000087
:10413000257320282575292025733A207772697404
:1041400065206572726F720D0A00000070B504463A
:104150000D46FEF775FA3420FEF7FCF92946204695
:10416000FEF74CFA04280AD000BF00F0C1FE064654
:1041700004A3324605A106A0FFF7A0FC00BFFEF78E
:1041800033FA70BD666C6173680000004500000082
:10419000257320282575292025733A2077726974A4
:1041A00065206572726F720D0A00000070B50446DA
:1041B0000D46E1B20548FFF70DFC00BF8021034822
:1041C000FFF7FEFB0028F9D0204670BD00440040F8
:1041D0001CB5012103204004FFF7B8F80122092192
:1041E000C806FEF783FB01220A210920C006FEF75C
:1041F0007DFB012202210920C006FEF777FB012288
:1042000003210920C006FEF771FB18480090022127
:10421000684601710321417100218171C1716946B4
:104220000920C006FEF71AFB032000900121684612
:10423000017100218171032141710121C171694620
:104240000920C006FEF70AFB0220009069460848D4
:10425000FEF704FB01210920C006FEF769FB0221DD
:104260000920C006FEF764FB1CBD00000C06000020
:104270000004004870B50646002434E0E100234AFB
:104280005058FDF7A3FF0546E000204A11582A4682
:104290003046FDF7AFFF002824D13046FDF796FFEA
:1042A0000546E100194A5058FDF790FF281A1849B1
:1042B0000870002509E0E100144A5058FDF786FF18
:1042C0004019305C134948556D1C114800788542EF
:1042D000F1DBE0000D49401842680D4801780D48B7
:1042E000904770BD641CE000084908580028C5D1FB
:1042F00000BF00F0FDFD044607A322460AA10BA063
:10430000FFF7DCFB00BF00BFEBE700001801002057
:104310007001002004050020426C6520436D64207C
:1043200050726F6365737300490000002573202885
:104330002575292025733A20556E6B6E6F776E2098
:10434000636F6D6D616E640D0A000000F8B506467E
:104350000D46E9B23046FFF728FE0446002C19D17D
:1043600000BF00F0C5FD07461FA33A4622A123A0C7
:10437000FFF7A4FB00BF294801782948C08800281E
:1043800001D1012000E0002081422BD025A0FEF7C2
:1043900067F827E0012C19D100BF00F0A9FD0746FE
:1043A00011A33A4614A122A0FFF788FB00BF1B48C7
:1043B00001781B48C088002801D1012000E00020BE
:1043C00081420FD022A0FEF74BF80BE000BF00F0B7
:1043D0008FFD074604A33A4607A120A00094FFF7EB
:1043E0006DFB00BFF8BD0000426C6520436D64208A
:1043F00050726F63657373004900000025732028B5
:104400002575292025733A20426C7565746F6F7489
:104410006820646F776E0D0A00000000E40400203D
:10442000B005002041542B534630320D0A000000E5
:10443000257320282575292025733A20426C75653F
:10444000746F6F746820656E61626C650D0A0000A0
:1044500041542B534630310D0A00000025732028AB
:104460002575292025733A20556E6B6E6F776E2067
:10447000426C7565746F6F746820736561726368F0
:10448000206D6F64653A25640D0A0000F8B5064694
:104490000D46E9B23046FFF788FD0446032C0AD1E9
:1044A00000BF00F025FD074618A33A461BA11CA03B
:1044B000FFF704FB28E0002C0AD100BF00F018FD34
:1044C000074612A33A4615A11DA0FFF7F7FA18E018
:1044D000012C0AD100BF00F00BFD07460BA33A46A2
:1044E0000EA121A0FFF7EAFA0BE000BF00F000FDEB
:1044F000074606A33A4609A124A00094FFF7DEFA76
:1045000000BF00202F494870F8BD0000426C6520B4
:10451000436D642050726F6365737300490000003F
:10452000257320282575292025733A20426C75654E
:10453000746F6F746820636F6E6E6563740D0A002C
:10454000257320282575292025733A20426C75652E
:10455000746F6F746820636F6E6E656374696F6EDD
:1045600020646F776E0D0A00257320282575292099
:1045700025733A20426C7565746F6F746820636FA1
:104580006E6E656374696E670D0A000025732028DE
:104590002575292025733A20556E6B6E6F776E2036
:1045A000426C7565746F6F746820636F6E6E6563BF
:1045B00074696F6E207374617475733A25640D0AA3
:1045C00000000000E4040020F8B506460C46E1B205
:1045D0003046FFF7EAFC05460748C58600BF00F0F5
:1045E00087FC074605A33A4608A109A00095FFF7F6
:1045F00065FA00BFF8BD0000DC050020426C6520B4
:10460000436D642050726F6365737300490000004E
:10461000257320282575292025733A204375727249
:10462000656E742066696C6520696E6465783A25EC
:10463000640D0A00F8B506460C46E1B23046FFF7B5
:10464000B4FC05460748458700BF00F051FC07460B
:1046500005A33A4608A109A00095FFF72FFA00BF6D
:10466000F8BD0000DC050020426C6520436D64202D
:1046700050726F6365737300490000002573202832
:104680002575292025733A20546F74616C20666962
:104690006C65206E756D6265723A25640D0A0000C6
:1046A00070B505460C46E1B22846FFF77EFC06468B
:1046B0000148468070BD00001C060020F8B5064683
:1046C0000D46E9B23046FFF770FC0446022C0DD1CE
:1046D00000201549087000BF00F00AFC074613A32C
:1046E0003A4616A116A0FFF7E9F91BE0012C0DD1FF
:1046F00001200D49087000BF00F0FAFB07460BA32C
:104700003A460EA113A0FFF7D9F90BE000BF00F065
:10471000EFFB074605A33A4608A113A00094FFF754
:10472000CDF900BFF8BD0000F0040020426C652008
:10473000436D642050726F6365737300490000001D
:10474000257320282575292025733A20506175731B
:10475000650D0A00257320282575292025733A2028
:10476000506C61790D0A00002573202825752920D9
:1047700025733A20556E6B6E6F776E20706C617981
:10478000207374617475733A25640D0A000000008B
:10479000F8B506460C46E1B23046FFF706FC054682
:1047A0000748C58700BF00F0A3FB074605A33A46AC
:1047B00008A109A00095FFF781F900BFF8BD00002E
:1047C000DC050020426C6520436D642050726F63ED
:1047D0006573730049000000257320282575292082
:1047E00025733A2046696C65206475726174696F3F
:1047F0006E3A25640D0A000070B505460E4600BFEE
:1048000000F076FB044604A3224607A107A0FFF7A9
:1048100055F900BF70BD0000426C6520436D6420F7
:1048200050726F6365737300490000002573202880
:104830002575292025733A2068616E646C654F4B9D
:104840000D0A0000F8B506460D46E9B23046FFF7FE
:10485000ACFB0446022C0AD100BF00F049FB07461E
:1048600016A33A4619A11AA0FFF728F925E0002C53
:104870000AD100BF00F03CFB074610A33A4613A143
:104880001EA0FFF71BF918E0012C0AD100BF00F0B1
:104890002FFB074609A33A460CA124A0FFF70EF907
:1048A0000BE000BF00F024FB074604A33A4607A133
:1048B00029A00094FFF702F900BFF8BD426C652003
:1048C000436D642050726F6365737300490000008C
:1048D000257320282575292025733A20426C75659B
:1048E000746F6F746820736561726368206D6F64A4
:1048F000653A206D61630D0A0000000025732028D1
:104900002575292025733A20426C7565746F6F7484
:104910006820736561726368206D6F64653A207505
:104920006E646566696E65640D0A00002573202853
:104930002575292025733A20426C7565746F6F7454
:104940006820736561726368206D6F64653A2072D8
:10495000616E646F6D0D0A0025732028257529206E
:1049600025733A20556E6B6E6F776E20426C7565BD
:10497000746F6F746820736561726368206D6F6413
:10498000653A25640D0A000070B58EB005460E46E6
:104990000C2E0CD000BF00F0ABFA044657A3224601
:1049A0005AA15BA0FFF78AF800BF0EB070BD00BF30
:1049B00000F09EFA044651A3224654A15FA0009540
:1049C000FFF77CF800BF002417E000200B90600088
:1049D000295C08A801736000401C295C08A8417389
:1049E000102200210BA8FDF739FC0CA908550CA8D2
:1049F000015D58A0FFF762F8641C062CE5DB57A0A8
:104A0000FFF75CF8062256490CA8FDF7E6FB0028E4
:104A100060D05348C01E4078002834D05048C01E93
:104A2000807A401C4E49C91E88720846807A042844
:104A300061DD00208872487000BF00F059FA04461A
:104A40002EA3224631A147A0FFF738F800BF444803
:104A5000C01E007A4249C91EC979414AD21E9279C4
:104A60003F4BDB1E5B7900930192029103903C481F
:104A7000C01E0379C27842A104A8FFF72FF804A84A
:104A8000FDF7EEFC37E000BF00F032FA04461BA34E
:104A900022461EA133A0FFF711F800BF3048C01E08
:104AA000007A2F49C91EC9792D4AD21E92792C4B02
:104AB000DB1E5B7900930192029103902848C01E8F
:104AC0000379C2782EA104A8FFF708F804A8FDF71F
:104AD000C7FC10E001202249C91E487000208872DE
:104AE00000BF00F005FA044604A3224607A12CA04B
:104AF000FEF7E4FF00BF00BF57E70000426C6520EF
:104B0000436D642050726F63657373004900000049
:104B1000257320282575292025733A20496E766152
:104B20006C6964204D414320616464726573732035
:104B30006C656E6774680D0A0000000025732028FC
:104B40002575292025733A2025732C204D61633A61
:104B50000000000025303258200000000D0A00003F
:104B6000E7040020257320282575292025733A2085
:104B7000426C65206D6163206572726F720D0A0070
:104B800041542B535025303258253032582530327D
:104B9000582530325825303258253032580D0A0009
:104BA000257320282575292025733A20426C65201D
:104BB0006D616320747275650000000010B50020FF
:104BC0000AE081001A4A89180968820001235B07FC
:104BD000D2181160411CC8B23028F2DB0320FEF766
:104BE000F5FB01210846FEF7E1FBFEF7F5FC114C51
:104BF000601E1149884200D90CE0601E0F494861CF
:104C00000321081FFEF758FB00200C49886107208C
:104C1000086100BFFFF7DCFA00F0B4FAFDF794FE7C
:104C2000FEF79AF9FDF732FD00F094FA002010BD6E
:104C30000020000880BB0000FFFFFF0000E000E054
:104C400070B502460B46FF25FF2408E01178521C80
:104C500069400748405C604005460648445C184689
:104C60005E1EB3B20028F1D12002284370BD0000BF
:104C7000D4510008D452000810B58CB07F48007899
:104C8000012835D1002008E0811D89007C4A89185F
:104C90008A787C490A54411CC8B20628F4DB7A4859
:104CA000C08800281DD17748C01E017AC079754A96
:104CB000D21E9279734BDB1E5B79009301920391B4
:104CC00002907048C01E0379C27870A104A8FEF754
:104CD00005FF04A8FDF7C4FB02217448FDF72AFE76
:104CE00003E002217148FDF723FE002063490870AC
:104CF00064216F480068FDF71BFA0A2902D16DA0F4
:104D0000FDF7AEFB6048C088002813D164216848D5
:104D10000068FDF70DFA142902D168A0FDF7A0FB89
:104D2000642163480068FDF703FA1E2902D165A0DB
:104D3000FDF796FB5448408C002807D064A0FDF78F
:104D40008FFB3220FFF75CF9FEF7F2FA4E48C0887D
:104D50004C49C91E0978884224D10A215448006868
:104D6000FDF7E6F905291DD14748C08800280BD179
:104D700059A0FDF775FB01204249C91E08700221A8
:104D80004A48FDF7D7FD0AE056A0FDF769FB002071
:104D90003C49C91E087002214448FDF7C9FDFDF7D2
:104DA000F5FC63E03848C08B002820D0002035494E
:104DB000C91E487000213448C1833248C01E017AA0
:104DC000C079304AD21E92792E4BDB1E5B7900935C
:104DD0000192039102902B48C01E0379C2782BA147
:104DE00004A8FEF77BFE04A8FDF73AFB3EE0002492
:104DF00039E02448015DA01D8000214A80184088C8
:104E000081422ED0002008E0811D89001C4A8918AB
:104E10008A781C490A54411CC8B20628F4DB194898
:104E2000C01E007A1749C91EC979164AD21E927946
:104E3000144BDB1E5B7900930192029103901148A1
:104E4000C01E0379C27811A104A8FEF747FE04A88A
:104E5000FDF706FB00200B49C91E4870FDF796FCC4
:104E600003E0601CC4B2062CC3DB00BF104800681E
:104E7000401C0F4908600CB010BD0000000100206C
:104E8000DC050020E7040020B005002041542B532E
:104E9000502530325825303258253032582530329E
:104EA0005825303258253032580D0A000004004889
:104EB0000401002041542B524E0D0A0041542B5244
:104EC000530D0A0041542B545130310D0A0000009B
:104ED00041542B435A0D0A0041542B534630310D97
:104EE0000A00000041542B534630320D0A000000E6
:104EF0000148006870470000D400002000B589B068
:104F00005C480078002807D05A480078002872D002
:104F1000584840780028FAD057480078012809D12D
:104F20000020554908705549488055490870534834
:104F3000807D88705148408851490978884207D05F
:104F40004E4880784E4908704EA0FDF789FA8AE0F5
:104F50004E48C08A4A49497888421ED04B48807DD5
:104F600047494870084640781E2801DD1E204870D9
:104F7000434840780A2806DB4148427844A101A80A
:104F8000FEF7ACFD05E03E48427844A101A8FEF7DB
:104F9000A5FD01A8FDF764FA65E03848C08A3849E4
:104FA0008978884211D03548807D354988703348EA
:104FB000C08A002803D03CA0FDF752FA02E03DA0D1
:104FC000FDF74EFAFDF7E2FB4DE02C48C0890028C2
:104FD00006D000212948C18139A0FDF741FA42E0FD
:104FE00026484089002807D000212448418136A066
:104FF000FDF736FA37E03BE02048408A002815D01C
:1050000000211E4841822148428E31A101A8FEF7AD
:1050100065FD01A8FDF724FA1848C08A002802D1CE
:1050200024A0FDF71DFAFDF7B1FB1CE064212B481D
:105030000068FDF77DF8282903D129A0FDF710FAB3
:1050400011E0642125480068FDF772F832290AD181
:105050000B488078002803D013A0FDF701FA02E086
:1050600014A0FDF7FDF91D480068401C1B490860AD
:1050700009B000BDE404002008010020B0050020B4
:10508000F004002041542B43420D0A00DC050020AF
:1050900041542B434125640D0A00000041542B4329
:1050A000413025640D0A000041542B414330320D3C
:1050B0000A00000041542B414330300D0A0000002B
:1050C00041542B43430D0A0041542B43440D0A0025
:1050D00041542B414225640D0A0000000C010020C0
:1050E00041542B4D500D0A00F8B505460EA1284637
:1050F000FDF790F8044613E000BFFFF7F9FE0646FF
:105100000AA332460DA10EA00094FEF7D7FC00BF03
:105110002046FFF7AFF804A10020FDF77BF8044616
:10512000002CE9D1F8BD00000D0A0000426C65209A
:10513000436D642050726F63657373004900000013
:10514000257320282575292025733A20636D643A3C
:1051500025730A000020084908800849088008498A
:10516000088008E00448FEF7CDFA0448FEF722FB69
:105170000348FEF783FBF5E7E0000020E80000208D
:10518000F000002008B501218803FEF7FFF8012197
:105190004804FEF7EBF81B216846017001214170BD
:1051A0008170FEF751F81C2168460170FEF74CF83B
:1051B0000548064988812D200860FF20A230044957
:1051C00088812D20086008BD881300000038014048
:1051D0000044004000C1814001C0804101C08041C5
:1051E00000C1814001C0804100C1814000C18140B7
:1051F00001C0804101C0804100C1814000C18140A7
:1052000001C0804100C1814001C0804101C0804196
:1052100000C1814001C0804100C1814000C1814086
:1052200001C0804100C1814001C0804101C0804176
:1052300000C1814000C1814001C0804101C0804166
:1052400000C1814001C0804100C1814000C1814056
:1052500001C0804101C0804100C1814000C1814046
:1052600001C0804100C1814001C0804101C0804136
:1052700000C1814000C1814001C0804101C0804126
:1052800000C1814001C0804100C1814000C1814016
:1052900001C0804100C1814001C0804101C0804106
:1052A00000C1814001C0804100C1814000C18140F6
:1052B00001C0804101C0804100C1814000C18140E6
:1052C00001C0804100C1814001C0804101C08041D6
:1052D00000C1814000C0C101C30302C2C60607C7A6
:1052E00005C5C404CC0C0DCD0FCFCE0E0ACACB0B16
:1052F000C90908C8D81819D91BDBDA1A1EDEDF1F46
:10530000DD1D1CDC14D4D515D71716D6D21213D335
:1053100011D1D010F03031F133F3F23236F6F737E5
:10532000F53534F43CFCFD3DFF3F3EFEFA3A3BFBD5
:1053300039F9F83828E8E929EB2B2AEAEE2E2FEF85
:105340002DEDEC2CE42425E527E7E62622E2E323F5
:10535000E12120E0A06061A163A3A26266A6A76725
:10536000A56564A46CACAD6DAF6F6EAEAA6A6BAB95
:1053700069A9A86878B8B979BB7B7ABABE7E7FBFC5
:105380007DBDBC7CB47475B577B7B67672B2B373B5
:10539000B17170B050909151935352929656579765
:1053A000559594549C5C5D9D5F9F9E5E5A9A9B5B55
:1053B00099595898884849894B8B8A4A4E8E8F4F05
:1053C0008D4D4C8C44848545874746868242438375
:1053D0004181804000404040404040404040414189
:1053E00041414140404040404040404040404040BA
:1053F0004040404040050202020202020202020254
:105400000202020202202020202020202020200250
:1054100002020202020290909090909010101010E0
:10542000101010101010101010101010101010107C
:105430000202020202028888888888880808080810
:1054400008080808080808080808080808080808DC
:105450000202020240000000D55300084D312B002B
:105460004D322B00524E2B004D502B0054512B002F
:1054700052532B004D542B0052542B004F4B000025
:10548000A0540008C0000020E00000000C3B000811
:1054900080550008A0010020800800001C3B000887
:1054A000006CDC02000000000000000001020304A8
:1054B00006070809000000000000000000000000CE
:1054C00000000000000000000000000000000000DC
:1054D0000000000000000000FF7850A55A3826FEAA
:1054E00001000000000000000100000000000000BA
:1054F00000000000000000007C540008F94700088C
:10550000705400088D440008645400084D4300089E
:1055100078540008454800086C5400088949000880
:105520005C540008C945000860540008354600086E
:1055300068540008BD4600087454000891470008EC
:1055400074540008A146000800000000000000009C
:10555000000000000000000000000000B005002076
:10556000000000000B000000DC050020000000002F
:10557000110000000000000000000000000000001A
:04000005080020C10E
:00000001FF
