:020000040800F2
:1000000070080020D9000008FF0000080101000866
:1000100000000000000000000000000000000000E0
:1000200000000000000000000000000003010008C4
:100030000000000000000000050100083512000863
:10004000090100080000000009010008090100087A
:100050000901000809010008090100080901000858
:10006000000000000901000809010008090100085A
:10007000090100080901000809010008000000004A
:10008000090100080000000000000000090100084C
:10009000000000000901000809010008090100082A
:1000A0000000000009010008000000008D14000895
:1000B000051500080000000000000000090100080C
:1000C0000448854600F090F800480047A51800084D
:1000D000C046C046700800200C4880F308880C48D1
:1000E0000168090E0B4A914205D10B480B4901608A
:1000F0000B480C4901600C4880470C480047FEE75C
:10010000FEE7FEE7FEE7FEE7FEE7000070080020DE
:10011000040000001F000000181002400100000051
:10012000000001400000000041130008C100000869
:1001300030B50B46014600202022012409E00D467F
:10014000D5409D4205D31D469540491B2546954007
:1001500040191546521E002DF1DC30BD70B500244B
:100160002546002801DA01244042002901DA012550
:100170004942FFF7DDFFAC4200D04042002C00D0E6
:10018000494270BD03460B439B0703D009E008C9F1
:10019000121F08C0042AFAD203E00B780370401C37
:1001A000491C521EF9D27047D2B201E00270401CC5
:1001B000491EFBD270470022F6E710B513460A46E7
:1001C00004461946FFF7F0FF204610BD30B504463F
:1001D0000020034600E05B1C934203D2E05CCD5C50
:1001E000401BF8D030BD0000064C0125064E05E04E
:1001F000E36807CC2B430C3C98471034B442F7D348
:10020000FFF762FF7C1E00089C1E00080149C860C1
:10021000704700000020024030B5044604250B2042
:10022000000400F0B1F80546042D17D10C48006910
:10023000022108430A4908610846446100694021D7
:100240000843074908610B20000400F09DF80546AB
:10025000034800690221884301490861284630BDEE
:100260000020024004200D49C968C907C90F0029B0
:1002700001D0012010E00949C9681022114000296D
:1002800001D0022008E00549C96804221140002974
:1002900001D0032000E0042070470000002002404D
:1002A0000348006980210843014908617047000044
:1002B0000020024070B504460D4604260B200004C1
:1002C00000F062F80646042E11D10A4800690121A7
:1002D00008430849086125800B20000400F054F809
:1002E000064604480069400840000249086130465B
:1002F00070BD00000020024078B506460C4604257B
:10030000002000900B20000400F03EF80546042D6C
:1003100024D1134800690121084311490861348040
:100320000B20000400F030F80546042D10D1B01C5D
:100330000090200C009908800B20000400F024F8A5
:10034000054607480069400840000549086105E086
:10035000034800694008400001490861284678BD0B
:10036000002002400548006980210840002804D090
:100370000348024948600348486070470020024033
:1003800023016745AB89EFCD10B503460424FFF781
:1003900069FF044603E0FFF765FF04465B1E012C7E
:1003A00001D1002BF7D1002B00D10524204610BD30
:1003B000F0B50A4600210023002400BF3DE00125DE
:1003C0008D402B4615681D402C469C4234D1157932
:1003D000012D02D01579022D16D185684F00032614
:1003E000BE40B543856055794E00B54086683543BB
:1003F0008560858801268E40B543858085889679FD
:100400008E40B6B23543858005684F000326BE4056
:10041000B543056015794E00B54006683543056063
:10042000C5684F000326BE40B543C560D5794E0070
:10043000B540C6683543C560491C1029BFD3F0BD1F
:10044000F0B5002300244D07EE0E1546B5402B46AF
:10045000CD10AE0005462035AD594E07F70E0F26DC
:10046000BE40B543CE10B60007462037BD51CD1073
:10047000AE003D46AD591D432C46CD10AD003E4665
:100480007451F0BD01857047816170470148024990
:1004900008607047CCCC00000030004001480249A1
:1004A00008607047AAAA0000003000400149486077
:1004B000704700000030004001498860704700002C
:1004C00000300040014908607047000000300040E3
:1004D00038B527480088274988420ED15525294636
:1004E000234801F06BF900BF29462148801C01F028
:1004F00065F9214801F0C4F929E01D480088552814
:100500001ED11B484088AA281AD119488088194949
:10051000884215D1FA2529461548001D01F04EF9EB
:1005200001F076FA022015490860002405E0A102D6
:10053000114A881801F0FEF8641C102CF7D306E06D
:100540000B48C088552802D10B4801F099F90B4897
:10055000006800280AD1C82001F0D8F808A0006877
:1005600000900321684601F01FF800BF38BD00006D
:10057000007C0008FFFF000000200008400300206E
:10058000FF6FFE007FB527488078082820D1082219
:1005900025492448FE38FFF719FE002818D12348C2
:1005A00001F0C8F855252946204801F007F9AA2589
:1005B00029461E48801C01F001F9432000900121CA
:1005C000684600F0F1FF012001F0A0F800F02AFDDC
:1005D00017480068002801D104B070BD00210191C6
:1005E0001048817801AB02AAFE3801F01DFA0446DA
:1005F000052001F08BF868468088002805DD6846F4
:100600008088C1B202A800F0CFFF022C02D10948B5
:1006100001F036F968468088002801DD0120DBE71B
:100620000020D9E73B030020FC000020007C0008EC
:10063000400300200020000810B503210B4800787B
:10064000FFF78CFD002905D101210920C006FFF725
:1006500019FF04E001210920C006FFF715FF034838
:100660000078401C0149087010BD000014010020F2
:1006700010B514484078062815D006DC012809D0AA
:1006800003280AD0052817D10AE00F280ED0102819
:1006900012D10EE000F034F812E000F0E5F80FE0BF
:1006A00000F052F90CE000F087F909E000F0AEF933
:1006B00006E000F0FDF903E0012000F06FFB00BF51
:1006C00000BF10BD7C03002010B50B480078042843
:1006D00010DB09480178403801F026F9002809D1DB
:1006E000054840380078782804D1FFF7C1FF012081
:1006F0000249087010BD0000BC0300201C0100204E
:10070000F0B593B0402102A8FFF755FD5448007999
:10071000000253494979401885B2012D01DB0B2DA8
:1007200004DD032000F03AFB13B0F0BD4C488078A4
:1007300000024B49C978401886B24A488088B042C6
:1007400005DC7019401E4749C988884203DD022034
:1007500000F024FBE8E7E81DC117490F0918490319
:10076000090C1291002404E0002002A90855601C25
:1007700084B212988442F7DB00242AE0311988B24F
:1007800000F02AFA01900198002802D0012819D11E
:1007900000E01BE02046E217520F1218D21002AB05
:1007A0009A5C2146E3175B0F5B18DB10DB00E71A4E
:1007B0000123BB401A43E3175B0F1B18DB1002AF8A
:1007C000FA5403E0042000F0E9FAADE700BF601C32
:1007D00084B2AC42D2DB0021214880308170803865
:1007E0000178803082788078401CC3B21C48803009
:1007F00083703E38815442384178803082788078E6
:10080000401CC3B21648803083703E388154129821
:10081000C1B21348803082788078401CC3B210483F
:10082000803083703E38815400240EE002A8015DC0
:100830000B48803082788078401CC3B208488030F2
:1008400083703E388154601C84B212988442EDDB80
:100850000348803081783E3800F0CEFA00BF63E76D
:100860007C0300202001002070B53548007900028B
:1008700033494979084304463148807800023049B9
:10088000C97808430546012C01DB222C03DD032037
:1008900000F084FA70BD2B488088A84205DC281936
:1008A000401E2849C988884203DD022000F076FAFC
:1008B000F0E7002122488030817080380178803054
:1008C00082788078401CC3B21D48803083703E38E7
:1008D000815442384178803082788078401CC3B29D
:1008E0001748803083703E3881546006010E1448EA
:1008F000803082788078401CC3B211488030837089
:100900003E388154E2B23E3083783E38191828468A
:1009100000F07EF90646002E03D1042000F03EFAD6
:10092000B8E707488030807861004018C1B20448B9
:100930008030817081783E3800F05EFA00BFA9E710
:100940007C0300202C01002070B5194800790002BA
:1009500017494979401885B2002D07D0FF200002C1
:10096000854203D0032000F019FA70BD104880784A
:1009700000020F49C978401884B20E488088A0420E
:1009800011DC0C48C088A0420DDB2946204600F04F
:1009900071F9012803DD042000F000FAE5E70020EA
:1009A00000F0FCF902E0022000F0F8F900BFDCE7FB
:1009B0007C0300202001002070B5124880780002DE
:1009C0001049C978084304460F488088A04203DCD8
:1009D0000D48C088A04203DA022000F0DFF970BDA4
:1009E00001220849091D204600F09AF90546002D0C
:1009F00003D1042000F0D2F9F1E7002000F0CEF995
:100A000000BFECE77C0300202C01002070B52648D5
:100A10000079000224494979401884B2012C01DB95
:100A20000B2C03DD032000F0B9F970BD2046E1175F
:100A3000490F091849050E0EE117490F0918C91089
:100A4000C900611A01D0701CC6B217488079B04243
:100A500003D0032000F0A2F9E7E7134880780002F2
:100A60001149C978401885B210488088A84205DC31
:100A70002819401E0D49C988884203DD022000F074
:100A80008DF9D2E7084AD21D2146284600F014F914
:100A9000012803DD042000F081F9C6E7002000F002
:100AA0007DF900BFC1E700007C0300202001002089
:100AB00070B51B480079000219494979084304467A
:100AC0001748807800021649C97808430546012C6A
:100AD00001DB222C03DD032000F060F970BD11481A
:100AE0008088A84205DC2819401E0E49C988884222
:100AF00003DD022000F052F9F0E7E2B20849C91D17
:100B0000284600F00DF90646002E03D1042000F01F
:100B100045F9E3E7002000F041F900BFDEE70000FF
:100B20007C0300202C01002001804280704701805E
:100B30004280704710B52048204988801E480A30FE
:100B4000C880002309E099001D4A881800221A492C
:100B50005918FFF7E9FF581CC3B20B2BF3DB1948F8
:100B6000194988801948C88000230BE0174A521E93
:100B70009A1891B29A00164C10190022FFF7D7FF6D
:100B8000581CC3B2052BF1DB00230BE0114A9A1865
:100B900091B25A1D92000E4C10190022FFF7C7FFA8
:100BA000581CC3B20C2BF1DB782009494880E321A3
:100BB0000748C18010BD0000E02E00002001002089
:100BC0000004002050C300002C01002079E6000042
:100BD0002C04002038C7000010B50346002111E0A6
:100BE00088000A4A105A98420AD18800144600190F
:100BF0004288D00F801840104000101AC0B210BDBB
:100C0000481C81B20B29EBDBC8B2F8E700040020D6
:100C100070B505460B461446002124E08800144EAA
:100C2000305AA8421DD10819401E8000305A2E1992
:100C3000761EB04215D100220FE0881880000C4EBD
:100C400080194088001218705B1C88188000801979
:100C5000807818705B1C501CC2B2A242EDDB0120F0
:100C600070BD481CC1B21129D8DB0020F8E7000094
:100C70002C04002030B502460B46002115E0880008
:100C80000C4C205A90420ED1002B05D001208C0034
:100C9000084D6419608004E000208C00054D641943
:100CA0006080012030BD481C81B20B29E7DBC8B24F
:100CB000F8E7000000040020F7B50C46002208E029
:100CC0009000164B1B5A0098834200D103E0501C41
:100CD00082B20B2AF4DB00BF0B2A01DB1046FEBDFB
:100CE000002117E00846CD176D0F2D18EE10029D5C
:100CF000AD5D0B46CE17760FF618F610F6008E1B7C
:100D00003541ED07ED0F5618B600044FF619758002
:100D1000481C81B2A142E5DB0120E0E7000400208D
:100D2000F0B505460B461446002129E08800164E12
:100D3000305AA84222D10819401E8000305A2E197C
:100D4000761EB0421AD1002214E01E785B1C3002DD
:100D50008E18B6000C4FF619708018785B1C8E1830
:100D6000B600F619768830438E18B600F6197080F2
:100D7000501CC2B2A242E8DB0120F0BD481CC1B247
:100D80001129D3DB0020F8E72C04002070B50446BD
:100D90000D462946204600F007FC70BD10B50446FC
:100DA000002C0FD078211348817040384078802182
:100DB00008431049891C48700846847003213E305E
:100DC00081700FE0002006E00A4940390A5C423198
:100DD0000A54411CC8B20628F6DB062205494031F8
:100DE0008A7000BF0348403081783E3800F004F834
:100DF00010BD0000BC03002070B504460D46294616
:100E0000204600F091FD06462846691CCDB22654C6
:100E100032122846691CCDB2225429462046FFF7DB
:100E2000B5FF70BD0020404908600DE03E480068F5
:100E30003E49401800883E49884200D10AE03A48BD
:100E400000680A3038490860374800687D21C900C9
:100E50008842EBD300BF3448006800285DD0324898
:100E60000068324940184038C08E8007C10F3148B1
:100E7000C1802D4800682D4940184038C08E400779
:100E8000C10F2C48C18228480068284940184038C2
:100E9000008FC004C10E2848C1822348006823493E
:100EA00040184038008FC1B2234841861E48006870
:100EB0001E4940184038408FC1B21F4841831A482C
:100EC00000681A4940184038408F01121A48C183FF
:100ED00015480068154940184038808FC1B216483F
:100EE000418411480068114940184038808F011230
:100EF0001148C1840C4800680C4940184038C08F24
:100F0000C1B20D484185084800680849401840387A
:100F1000C08F01120848C18505E000210548C18045
:100F20000A210548C1827047DC00002000780008D3
:100F3000FFFF0000000400202C0400200021827824
:100F4000002A27D0184A03231B02D21803789B10CB
:100F50009B00D15802789207D30EFF229A400B468D
:100F60009343194642789207120E03789B07DB0ED3
:100F70009A4011430C4A03231B02D21803789B109A
:100F80009B00D1500278D306DB0E01229A40064B1B
:100F90001A6007E00278D306DB0E01229A40024B6A
:100FA00080331A607047000000E100E010B50028AF
:100FB00019DA1A4A03071B0F083B9B089B00D258FB
:100FC0008307DC0EFF23A3409A438B071B0E840785
:100FD000E40EA3401A43114B0407240F083CA40855
:100FE000A4001A5118E00E4A03231B02D2188308EA
:100FF0009B00D2588307DC0EFF23A3409A438B0744
:101000001B0E8407E40EA3401A43054B032424025D
:101010001B198408A4001A5110BD00001CED00E04B
:1010200000E100E0BFF34F8F03480449C860BFF3FD
:101030004F8F00BFFEE700000400FA0500ED00E05E
:10104000002905D0054A52690243044B5A6104E065
:10105000024A52698243014B5A61704700100240B4
:10106000002905D0054AD2690243044BDA6104E045
:10107000024AD2698243014BDA6170470010024094
:10108000002905D0054A92690243044B9A6104E0A5
:10109000024A92698243014B9A61704700100240F4
:1010A0000CB50020019000904E4800680121090411
:1010B00008434C49086000BF4A48006801214904C0
:1010C000084000900198401C01900098002804D12D
:1010D0000521090301988842EED1424800680121A8
:1010E00049040840002802D00120009001E00020BF
:1010F0000090009801283AD111203B4908603948F6
:10110000406838494860084640684860084640687A
:101110007F21C9038843334948600846406811214C
:10112000090408432F494860084600680121090660
:1011300008432C49086000BF2A480068012149067D
:1011400008400028F8D027484068800880002549DA
:10115000486008464068022108432249486000BFB1
:10116000204840680C2108400828F9D138E01120B7
:101170001D4908601B4840681A4948600846406895
:101180004860084640687F21C90388431549486084
:1011900008464068C900084312494860084600688C
:1011A0000121090608430F49086000BF0D48006887
:1011B0000121490608400028F8D00A484068800804
:1011C00080000849486008464068022108430549F4
:1011D000486000BF034840680C2108400828F9D146
:1011E0000CBD0000001002400020024010B50E4867
:1011F0000078002805D000200C4908600A490870D2
:101200000EE00A480068401C08490860084600686B
:101210000749884204D9002004490860FFF702FF0B
:10122000FFF73CF910BD00001C0100201801002050
:101230001027000013480068401C1249086012483B
:10124000007800280CD010480078401C0E49087027
:1012500008460078142803DD01204870002008703B
:101260000A48007800280CD008480078401C07493C
:10127000087008460078052803DD0120487000202A
:1012800008707047D4000020380100203B02002085
:10129000F8B50025002400260027244840680C21CA
:1012A00008400546002D04D0042D06D0082D2AD173
:1012B00007E01F481F49086029E01D481D490860D4
:1012C00025E01A4840680F21890408400446174861
:1012D00040680321C90308400646A00C841C002E68
:1012E00004D115486043134908600BE00F48C06AF9
:1012F0000007000F471C39460D48FEF719FF6043F1
:101300000C49086003E00A480A49086000BF00BFB2
:1013100006484068F0210840000908490D5C05486E
:101320000068E84003490860F8BD00000010024072
:1013300000127A00C000002000093D00C400002017
:1013400010B51B4800680121084319490860084688
:101350004068184908401649486008460068164920
:101360000840134908600846006801218904884341
:101370000F490860084640683F21090488430C492A
:1013800048600846C06A00090001C8620846006B50
:10139000FF2154318843064908630846406B4008E2
:1013A0004000486300208860FFF77AFE10BD00000F
:1013B000001002400CB8FFF8FFFFF6FE10B504461F
:1013C0002088002802D0552827D104E024E000BF5F
:1013D0005520208000BF13484078002800D110BD60
:1013E00000BFFFF7CFF8002811D10F4880784028C0
:1013F0000DDA0D4882780146FE390C48FEF7C2FE30
:1014000009488178094840300170FFF75DF9FF21F4
:1014100004310448FEF7CFFED9E7002020800220E7
:10142000DDE700003B0200203B0300207C0300209E
:1014300010B504462088002802D080281FD113E070
:101440001CE0FFF7F9F8FFF7D1FE00F011F90E48A4
:101450000068401C0C49086000BF00F081FA606021
:1014600000BF8020208000BF00F07AFA6168401A37
:10147000642801D2002010BD00BF00BFE1E70020BA
:1014800020800220F7E70000F80000201A48C06919
:1014900020210840002810D0174820308088C1B291
:1014A000164882788078401CC3B214488370FE3896
:1014B00081540120124908701CE00F48C0690221C4
:1014C0000840002803D002200B49086212E00A48B5
:1014D000C06904210840002803D00420064908629E
:1014E00008E00548C06908210840002802D008200B
:1014F00001490862704700000038014038020020AE
:10150000380100201A48C06920210840002810D066
:10151000174820308088C1B2164882788078401CF5
:10152000C3B214488370FE388154012012490870F8
:101530001CE00F48C06902210840002803D00220A7
:101540000B49086212E00A48C069042108400028DB
:1015500003D004200649086208E00548C069082154
:101560000840002802D008200149086270470000A6
:10157000004400403B0300203B02002010B502461F
:1015800000200CE0135C074C238100BF054B203B7F
:10159000DB6980242340002BF8D0431CD8B288425A
:1015A000F0DB10BD2038014070B504460D46022125
:1015B0000920C006FEF768FF00200CE0215C0E4AFF
:1015C000118100BF0C492039C969802211400029CE
:1015D000F8D0411CC8B2A842F0DB00BF0648203852
:1015E000C069402108400028F8D002210920C00627
:1015F000FEF748FF70BD00002044004010B50346D0
:101600000C461946E21DF93200BF49005200FF2086
:1016100001301040002800D0491C0120000408407F
:10162000002801D004484140012000041040002857
:10163000EBD088B210BD000021100000F8B50546BF
:101640000E460024AF1905E029786D1CA0B2FFF703
:10165000D5FF0446BD42F7D3A0B20021FFF7CEFF6D
:10166000044620460021FFF7C9FF04462046F8BD86
:1016700008B516480068002827D01448806B401C25
:10168000124988630846806B1E280CD90846406BB7
:10169000401C4863002088631520694608700121BA
:1016A0006846FFF781FF0948406B05280CDD3C21A7
:1016B0000648FEF780FD182168460170417002213E
:1016C000FFF772FFFFF7AEFC00BF08BD400300202C
:1016D00030B47446641E2578641CAB4204D3635D49
:1016E0005B00E31830BC18471D46F8E702E008C865
:1016F000121F08C1002AFAD170477047002001E08C
:1017000001C1121F002AFBD17047000001B5074834
:101710000068009940180649086000BF0448006846
:10172000024909688842F9D808BD0000D4000020A9
:10173000D800002010B50446A005800D002806D171
:101740000120C006844202D30748844200D910BD5C
:10175000FEF708FE3420FEF759FD2046FEF75CFD3B
:10176000FEF79EFD00BFF2E7FF7F0008F0B5A1B0D5
:1017700006460F461546802D01D921B0F0BD2A46F8
:10178000394601A8FEF7FEFCFEF7ECFD3420FEF71B
:101790003DFD00240AE0A20001AB9958A200901977
:1017A000FEF7AAFD042800D003E0641CA808A042AC
:1017B000F1D800BFFEF774FD00BFDEE770B5044648
:1017C0000D46FEF7CFFD3420FEF720FD29462046CA
:1017D000FEF770FDFEF764FD70BD00001CB5012131
:1017E00003204004FFF72CFC01220921C806FEF764
:1017F00027FE01220A210920C006FEF721FE012250
:1018000002210920C006FEF71BFE01220321092048
:10181000C006FEF715FE18480090022168460171C7
:101820000321417100218171C17169460920C006FF
:10183000FEF7BEFD032000900121684601710021E2
:101840008171032141710121C17169460920C006DE
:10185000FEF7AEFD0220009069460848FEF7A8FD9D
:1018600001210920C006FEF70DFE02210920C00655
:10187000FEF708FE1CBD00000C0600000004004836
:1018800070B504460020C0430549086065682E46CF
:10189000206880F3088800BFB047012070BD0000B9
:1018A00080E100E010B586B0FFF7F2FC164C601E38
:1018B0001649884200D90CE0601E15494861032191
:1018C000081FFFF773FB002011498861072008619A
:1018D00000BF00F089F8FFF781FF00F05DF8FEF728
:1018E000F7FDFFF727F9FFF79DFA142209A101A8D8
:1018F000FEF748FC142101A8FFF740FE00F036F87F
:10190000002006B010BD000080BB0000FFFFFF00FC
:1019100000E000E041542B53503131323233333444
:1019200034353536360D0A0070B502460B46FF25B4
:10193000FF2408E01178521C69400748405C604071
:1019400005460648445C18465E1EB3B20028F1D135
:101950002002284370BD00007C1C00087C1D00088C
:101960000148006870470000D400002000200749AB
:101970000880074908800749088005E00448FFF708
:101980001DFD0448FFF754FDF8E70000E0000020CB
:10199000E8000020F000002008B501218803FFF7CF
:1019A0006FFB01214804FFF75BFB1B2168460170B8
:1019B000012141708170FFF7C1FA1C216846017056
:1019C000FFF7BCFA0548064988812D2008600348C6
:1019D000044988812D20086008BD0000881300009C
:1019E000003801400044004010B50748FEF76AFD8A
:1019F0000520FEF75BFD0548FEF75EFDFEF74EFD98
:101A0000FEF744FD10BD00005555000010270000F2
:101A100010B53C210348FEF7CEFB012001490860C8
:101A200010BD000040030020F8B5044615461F46CF
:101A3000002090498863207818280AD160781828F7
:101A400007D13C218B48FEF7B6FB0020894908608E
:101A5000F8BD884800680300FFF73AFE07F8050E56
:101A600074CEF8E3F800432028700120388002206B
:101A7000804908600120EBE72078012805D16078D3
:101A8000002802D1A078FF2803D000203880401E13
:101A9000DEE7002606E0F01C215C7648001D81553B
:101AA000701C86B2F01C205C002801D0802EF2DB76
:101AB000802E02DB0020C043CAE700216D48001DD4
:101AC0008155301D80B2009000260CE06948C06945
:101AD0000A21484300998919615C303940186549E9
:101AE000C861701C86B200988019205C302806DB23
:101AF00000988019205C3A2801DA0A2EE6DB5D485E
:101B0000C0697F30C0095B4948620846406A0121CC
:101B1000490288420BD9182028706870022038804A
:101B20003C215448FEF747FB0020C04390E70620C5
:101B30002870432068700220388003204D490860D7
:101B4000012085E78221E01CFFF778FD002805D001
:101B50001520287001203880801E79E72078012820
:101B600006D161784348008C401CC0B281421BD032
:101B700061784048006A401C814204D206202870E7
:101B80000120388008E01820287068700220388012
:101B90003C213848FEF70FFB3648406B401C354966
:101BA00048630020C04353E73248406B401C314932
:101BB0004863096AC901304A88188022E11CFFF78E
:101BC000D5FD2C48006A401C2A4908620846006A74
:101BD000496A884207D306202870012038800420F3
:101BE0002449086003E00620287001203880002086
:101BF0002049486301202BE72078042807D01D489E
:101C0000406B401C1B4948630020C04320E706206E
:101C1000287043206870022038800620154908602B
:101C200025E02078012805D16078002802D1A0782D
:101C3000FF280CD015202870012038800D48406BFB
:101C4000401C0C4948630020C04301E70CE03C21E4
:101C50000848FEF7B0FA06202870012038800020DE
:101C6000044908600220F3E60020C043F0E600BF0C
:101C70000020EDE6400300200020000800C1814064
:101C800001C0804101C0804100C1814001C080414C
:101C900000C1814000C1814001C0804101C080413C
:101CA00000C1814000C1814001C0804100C181402C
:101CB00001C0804101C0804100C1814001C080411C
:101CC00000C1814000C1814001C0804100C181400C
:101CD00001C0804101C0804100C1814000C18140FC
:101CE00001C0804101C0804100C1814001C08041EC
:101CF00000C1814000C1814001C0804101C08041DC
:101D000000C1814000C1814001C0804100C18140CB
:101D100001C0804101C0804100C1814000C18140BB
:101D200001C0804101C0804100C1814001C08041AB
:101D300000C1814000C1814001C0804100C181409B
:101D400001C0804101C0804100C1814001C080418B
:101D500000C1814000C1814001C0804101C080417B
:101D600000C1814000C1814001C0804100C181406B
:101D700001C0804101C0804100C1814000C0C1015B
:101D8000C30302C2C60607C705C5C404CC0C0DCDEB
:101D90000FCFCE0E0ACACB0BC90908C8D81819D95B
:101DA0001BDBDA1A1EDEDF1FDD1D1CDC14D4D5158B
:101DB000D71716D6D21213D311D1D010F03031F17B
:101DC00033F3F23236F6F737F53534F43CFCFD3DAB
:101DD000FF3F3EFEFA3A3BFB39F9F83828E8E9299B
:101DE000EB2B2AEAEE2E2FEF2DEDEC2CE42425E54B
:101DF00027E7E62622E2E323E12120E0A06061A1BB
:101E000063A3A26266A6A767A56564A46CACAD6D6A
:101E1000AF6F6EAEAA6A6BAB69A9A86878B8B979DA
:101E2000BB7B7ABABE7E7FBF7DBDBC7CB47475B50A
:101E300077B7B67672B2B373B17170B050909151FA
:101E40009353529296565797559594549C5C5D9D2A
:101E50005F9F9E5E5A9A9B5B99595898884849891A
:101E60004B8B8A4A4E8E8F4F8D4D4C8C44848545CA
:101E70008747468682424383418180409C1E0008FA
:101E8000C000002078000000EC160008141F0008B5
:101E90003801002038070000FC160008006CDC0246
:101EA000000000000000000001020304060708090A
:101EB0000000000000000000000000000000000022
:101EC0000000000000000000000000000000000012
:101ED0000000000000000000FF7850A55A3826FEE0
:101EE00001000000000000000000000000000000F1
:101EF00000000000000000000000000000040020BE
:101F0000000000000B0000002C0400200000000076
:041F100011000000BC
:04000005080000C12E
:00000001FF
