:020000040800F2
:10200000A8080020D9200008FF20000801210008AE
:1020100000000000000000000000000000000000C0
:102020000000000000000000000000000321000884
:102030000000000000000000052100080130000839
:1020400009210008000000000921000809210008FA
:1020500009210008092100080921000809210008B8
:1020600000000000092100080921000809210008DA
:1020700009210008092100080921000800000000CA
:1020800009210008000000000000000009210008EC
:1020900000000000092100080921000809210008AA
:1020A0000000000009210008000000007D32000847
:1020B000F5320008000000000000000009210008BF
:1020C0000448854600F090F8004800471D37000896
:1020D000C046C046A80800200C4880F308880C4879
:1020E0000168090E0B4A914205D10B480B4901606A
:1020F0000B480C4901600C4880470C480047FEE73C
:10210000FEE7FEE7FEE7FEE7FEE70000A808002086
:10211000040000001F000000181002400100000031
:102120000000014000000000D9300008C120000874
:1021300030B50B46014600202022012409E00D465F
:10214000D5409D4205D31D469540491B25469540E7
:1021500040191546521E002DF1DC30BD70B500242B
:102160002546002801DA01244042002901DA012530
:102170004942FFF7DDFFAC4200D04042002C00D0C6
:10218000494270BD03460B439B0703D009E008C9D1
:10219000121F08C0042AFAD203E00B780370401C17
:1021A000491C521EF9D27047D2B201E00270401CA5
:1021B000491EFBD270470022F6E710B513460A46C7
:1021C00004461946FFF7F0FF204610BD30B504461F
:1021D0000020034600E05B1C934203D2E05CCD5C30
:1021E000401BF8D030BD0000064C0125064E05E02E
:1021F000E36807CC2B430C3C98471034B442F7D328
:10220000FFF762FF7C3B00089C3B00080149C86067
:102210007047000000200240F0B506460B273F043F
:10222000384600F05BF804280FD1084C20690225DD
:1022300028432061666120694021084320613846B7
:1022400000F04CF82169A9432161F0BD0020024053
:1022500004200849CA68D20701D001207047CA6823
:10226000D20601D502207047C9684907FBD5032073
:10227000704700000020024002480169802211439B
:102280000161704700200240F0B505460E460B275D
:102290003F04384600F022F804280CD1064C20698F
:1022A0000121084320612E80384600F017F821698B
:1022B000490849002161F0BD00200240044801693D
:1022C000090603D503494160034941607047000096
:1022D0000020024023016745AB89EFCD00B50346DE
:1022E000FFF7B6FF02E0FFF7B3FF5B1E012801D145
:1022F000002BF8D1002B00D1052000BD00210020CB
:1023000007E0444A821811684A1C002A00D104E000
:10231000001D7D22D2009042F3D300BF3E4A1060E0
:102320001268002A13D03C4A12683A4BD218403A3D
:10233000928F9205920D394B1A80374A1268354BAD
:10234000D218403A928FD204D20F344B9A700020A8
:1023500007E0334A82181188324A914200D104E0E2
:10236000801C7D22D2009042F3D300BF2E4A106021
:102370001268002A06D10023284A13719371192389
:10238000537111E0284A1268254BD218403AD18F78
:102390008B079B0F214A93714A06530F1F4A1371F3
:1023A000CA04D30E1D4A53711C4A5279102A03DB0A
:1023B0001A4A52791E2A02DD1923184A5371174A04
:1023C0001279082A02DD0023144A1371134A927904
:1023D000032A02DD0023114A9371104A9278012AE0
:1023E00002DD00220D4B9A700C4AD3780F4A5381BC
:1023F0000A4A13880E4A5382084A53790C4A538377
:10240000064A13790A4AD382044A9379084AD38345
:102410007047000000740008DC0000203E0300202C
:1024200000780008FFFF0000E000002058040020B2
:102430007804002038B50446002000902E4800683B
:102440007D21C900884205D92C4801F023F80020DD
:10245000294908602A4800687D21C900884205D9B9
:10246000284801F017F8002025490860012C1AD1EE
:10247000254800880105090D684601800088224929
:1024800089780903084381B2684601801A490968BE
:102490001A4A88180222694601F018F8164800689E
:1024A000001D15490860022C25D117488079810745
:1024B000890F684601800088134909790901702253
:1024C000114001436846018000880F49497909029B
:1024D0001F22120211400843694608800849096812
:1024E000084A88180122694600F0F0FF0448006895
:1024F000801C0349086038BDDC000020007400081F
:10250000E0000020007800083E030020F0B5002223
:102510000325012393400C681C409C422AD10C796E
:10252000012C01D0022C12D1876854002E46A640FF
:10253000B74387604E79A6408468264386608488C6
:102540009C43848084888B7993401C4384800668F4
:1025500053002C469C40A64306600E7907689E40B7
:102560003E430660C668A643C660CC799C40C368FB
:102570001C43C460521C102ACBD3F0BD10B54B07CE
:10258000DB0E9A40C90889000818016A0F249C4094
:10259000A1430162016A1143016210BD01857047C8
:1025A000816170470249014808607047CCCC000047
:1025B000003000400249014808607047AAAA0000A4
:1025C0000030004001494860704700000030004082
:1025D00001498860704700000030004001490860F0
:1025E000704700000030004008B50E48C1885529EA
:1025F00009D00D4A914201D000F04CFF5521094805
:10260000801D00F07BFF09480068002809D1C82020
:1026100000F02CFF06A0006800900321684600F03F
:10262000BBFE08BD007C0008FFFF000098030020EF
:10263000FF6FFE0038B51448807808281DD1124875
:1026400008221249FE38FFF7C1FD002815D11048B5
:1026500000F020FF552421460D4800F04FFFAA242A
:102660000B482146801C00F049FF432000900121C7
:10267000684600F091FE00F0E3FB06480068002881
:1026800000D138BD0020FCE73B030020FD00002006
:10269000007C00089803002010B50C480A2100783F
:1026A000FFF75CFD002905D109200121C006FFF7D5
:1026B00075FF04E009200121C006FFF771FF034800
:1026C00002490078401C087010BD00000501002080
:1026D00010B513484078062818D006DC01280CD025
:1026E00003280DD0052804D10DE00F2811D01028A3
:1026F00012D0012000F010FB10BD00F02DF810BD2D
:1027000000F0A0F810BD00F0E3F810BD00F038F9BB
:1027100010BD00F08DF910BD00F0C8F910BD00002B
:10272000D403002010B50A48017804290ED340389C
:1027300001F032F8002809D10548403800786F28A8
:1027400004D1FFF7C5FF03490120087010BD000048
:10275000140400201C010020F0B591B0402101A814
:10276000FFF729FD354801794279090289188DB2B0
:10277000691E082904D3032000F0CEFA11B0F0BD81
:102780002E488178C0780902081887B22C498888B9
:10279000B84204D87819C988401E884203DD022057
:1027A00000F0BAFAEAE7E81DC6080020002101AAF5
:1027B00002E01154401C80B2B042FAD3002417E06A
:1027C000381980B200F0FEF900280FD0012803D09C
:1027D000042000F0A1FAD1E7E00801A96307095C31
:1027E0005B0F01229A40114301AA1154641CA4B248
:1027F000AC42E5D311498031104C42202278025579
:10280000084662783F3882700320887008463E3858
:102810008670002001AD08E08A782B5C571C1219E5
:102820008F7040329370401C80B2B042F4D30348A2
:102830008978423000F096FAA0E70000D403002027
:102840002001002070B5204908794A790002104320
:102850008A781302CA781343421E162A03D3032030
:1028600000F05AFA70BD194CA2889A4204D81A187E
:10287000E488521EA24203DD022000F04DFA70BD32
:10288000114C80340D78422255544A7821463F3904
:102890008A700321A170450021463E398D70C2B275
:1028A00008460646C11C184600F0A0F9002807D0CB
:1028B000A0784019C1B2A170304600F053FA70BD43
:1028C000042000F029FA70BDD40300202C01002060
:1028D00070B5274801794279090289188DB2002D17
:1028E00007D0FF2109028D4203D0032000F014FA23
:1028F00070BD8178C0780902081884B21D488188AB
:10290000A14231D8C088A0422ED32946204600F0EB
:1029100095F9012803D9042000F0FEF970BD16488E
:102920000189A1420AD1002D06D00020432149048B
:10293000401801F00DF813E00120F7E70188A142EB
:1029400007D10E480121408AC905401801F000F85E
:1029500006E0808BA04203D18120000400F0F8FF44
:10296000002000F0D9F970BD022000F0D5F970BD4B
:10297000D403002020010020580400207804002007
:1029800010B5244988780402C87804432248828814
:10299000A24202D8C088A04203D2022000F0BCF9B3
:1029A00010BD0122091D204600F088F9002813D02F
:1029B0001A49888BA04217D1C88B032814D2184912
:1029C0008A781849002A0BD0002809D04000401E00
:1029D000084300F0BDFF19E0042000F09DF910BD90
:1029E000084300F0B5FF11E0888AA04205D1C88AEB
:1029F0000D49084300F0ACFF08E0088BA04205D168
:102A0000488B0A491038084300F0A2FF002000F06C
:102A100083F910BDD40300202C010020780400208D
:102A20003E030020000486000001860000028600AC
:102A300010B51C4A107951790002401881B2481E25
:102A4000082803D3032000F067F910BD4805000EE5
:102A50004B0701D0401CC0B29379834203D00320BE
:102A600000F05AF910BD9078D3780002C01880B2F7
:102A70000D4CA388834204D84318E4885B1EA3420C
:102A800003DD022000F048F910BDD21D00F0F2F87D
:102A9000012803D9042000F03FF910BD002000F008
:102AA0003BF910BDD40300202001002010B51549CA
:102AB00008790202487902438878CB7800021843EB
:102AC000531E162B03D3032000F026F910BD0E4C25
:102AD000A388834204D88318E4885B1EA34203DDE5
:102AE000022000F019F910BDD2B2C91D00F0E6F8BD
:102AF000002803D0002000F00FF910BD042000F0E2
:102B00000BF910BDD40300202C010020018042806D
:102B1000704701804280704730B52548234C84803F
:102B2000E11DC1800023234D98004019002219198E
:102B3000FFF7ECFF5B1CDBB2082BF5D31C481E49EA
:102B40000C3081801D49C18000231A4C4D1E203459
:102B5000581981B2980000190022FFF7DAFF5B1CB8
:102B6000DBB2022BF4D30023154D0022581981B299
:102B7000981C80000019FFF7CCFF5B1CDBB2022B16
:102B8000F3D300230E4D0A35581981B2181D800069
:102B900000190022FFF7BDFF5B1CDBB2072BF3D34C
:102BA0006F206080F620E08030BD0000E02E000045
:102BB000200100205804002050C3000079E60000E6
:102BC00038C700000021084A8B00D35A834205D140
:102BD000880080188078C007C00F7047491C89B2F0
:102BE0000829F1D3C8B270475804002070B50023FB
:102BF0008418114D641E9E00AE5B864216D19E184D
:102C0000761EB600AE5BA64210D100200AE01C186A
:102C1000A40064196688360A0E70A4784C70891C6A
:102C2000401CC0B29042F2D3012070BD5B1CDBB2ED
:102C30000B2BE0D3002070BD7804002010B50022DB
:102C40000B4B94001C5B84420CD1002904D0012062
:102C50009100C918488003E000209100C9184880FD
:102C6000012010BD521C92B2082AEAD3D0B210BD86
:102C70005804002070B5034600200F4D84002C5BE3
:102C80009C4203D0401C80B20828F7D3082811D2F8
:102C900000230CE0DC08145D5E07760FF440E407C7
:102CA000C618E40FB600761974805B1C9BB28B4289
:102CB000F0D3012070BD000058040020F0B50023BF
:102CC0008418124E641E9D00755B854217D19D18B5
:102CD0006D1EAD00755BA54211D100200BE00C7894
:102CE00025021C18A400A41965804F78891C2F4365
:102CF0006780401CC0B29042F1D30120F0BD5B1C44
:102D0000DBB20B2BDFD30020F0BD000078040020E5
:102D100010B500F041FB10BD10B5114A11468031CD
:102D200000280BD06F24134640339C7052788024C7
:102D30002243DA701871032088700AE0002013180B
:102D4000145C40339C70401CC0B20628F7D30620A8
:102D5000887003488978423000F004F810BD000004
:102D6000D403002070B504460D462946204600F0E5
:102D700013FD691CCAB26055030A501CC1B2A354AA
:102D80002046FFF7C5FF70BD10B51648154A01680B
:102D90000068401C1060642923D31348418B1348FA
:102DA000407981420BD11048C18A10480079814294
:102DB00005D10D48C18B0D48807981420ED00A485B
:102DC000817E0A4841710848817D084801710648A2
:102DD000817F064881710220FFF72CFB014900200A
:102DE000086010BD0C010020780400203E03002084
:102DF00030B5827801240178002A16D08B080E4A5B
:102E00009B009A1813688907C90EFF258D40AB43B4
:102E10004578AD072D0E8D401D4315600078C00626
:102E2000C00E84400548046030BDC806C00E844012
:102E300002488030046030BD00E400E000E100E0C2
:102E4000BFF34F8F03490248C860BFF34F8FFEE7BF
:102E50000400FA0500ED00E0054A002903D051699D
:102E600001435161704751698143516170470000CE
:102E700000100240054A002903D0D1690143D16105
:102E80007047D1698143D161704700000010024052
:102E9000054A002903D09169014391617047916906
:102EA000814391617047000000100240054A0029EB
:102EB00003D0D1680143D1607047D1688143D160AC
:102EC0007047000000100240034A11688908890019
:102ED0000143116070470000000001407CB50023F1
:102EE00001930093324801680122120411430160EA
:102EF0005200052424030168114000910199491CE6
:102F000001910099002902D10199A142F3D10168F0
:102F1000890302D50121009100E000937F21012364
:102F2000009E1125234CC9031B060222012E1FD02F
:102F30002560446844604468446044688C4344604D
:102F400041682124E4032143416001681943016081
:102F500001688901FCD541688908890041604168A0
:102F60001143416041680907890F0229FAD17CBDEC
:102F70002560446844604468446044688C4344600D
:102F80004168112424042143416001681943016010
:102F900001688901FCD54168890889004160416860
:102FA0001143416041680907890F0229FAD17CBDAC
:102FB000001002400020024010B50E4800780028A2
:102FC00005D00D49002008600A4908700EE00A4843
:102FD00009490068401C08600846006807498842A3
:102FE00004D9054900200860FFF72AFFFFF7E2FA3D
:102FF00010BD00001C010020080100201027000067
:1030000013480068401C12490860124800780028E4
:103010000CD010480078401C0E4908700846007813
:10302000052803DD01204870002008700A48007858
:1030300000280CD008480078401C07490870084652
:103040000078052803DD01204870002008707047D3
:10305000D4000020380100203B02002070B51A4E39
:1030600071680C2001401948194C00290ED0042920
:103070000ED008290ED02060706815490006000F98
:10308000091D085C2168C140216070BD2060F3E724
:103090002060F1E771680F229204114072680323E7
:1030A000DB031A408D0CAD1C002A08D0F16A090719
:1030B000090F491CFFF73CF868432060DCE705482E
:1030C00045432560D8E700000010024000127A0056
:1030D000C000002000093D0010B51448016801221D
:1030E000114301604168124A114041600168114A70
:1030F000114001600168012292049143016041681E
:103100003F22120491434160C16A09090901C16269
:10311000016BFF22543291430163416B490849001E
:10312000416300218160FFF7D9FE10BD001002400D
:103130000CB8FFF8FFFFF6FE10B504462088002803
:1031400002D03B282AD104E027E000BF3B202080AA
:1031500000BF14484078002800D110BD00BF1248BD
:103160008078062811D100F035FA002802D10F49E5
:1031700008700AE00D480D490078401C08700846A8
:1031800000780A2801DDFFF75BFE09490020C871BD
:10319000FF2104310348FFF70EF8D6E70020208016
:1031A0000220DAE73801002038020020FC0000206D
:1031B0003E03002010B504462088002802D067286E
:1031C00027D104E024E000BF6720208000BF13481F
:1031D0004078002800D110BD00BFFFF72BFA00286F
:1031E00011D10F48807840280DDA0D4801468278C9
:1031F000FE390C48FEF7C6FF09488178094840307F
:103200000170FFF78FFAFF2104310448FEF7D3FF66
:10321000D9E7002020800220DDE700003B020020EB
:103220003B030020D403002010B50446208800286A
:1032300002D08F281ED112E01BE000F0C5FAFFF784
:103240002BFAFFF7B9FE00F0D1F8FFF79DFD00BFA4
:1032500000F006FB606000BF8F20208000BF00F000
:10326000FFFA6168401A642801D2002010BD00BF37
:1032700000BFE2E7002020800220F7E71A48C0697B
:1032800020210840002810D0174820308088C1B283
:10329000164882788078401CC3B214488370FE3888
:1032A00081540120124908701CE00F48C0690221B6
:1032B0000840002803D002200B49086212E00A48A7
:1032C000C06904210840002803D004200649086290
:1032D00008E00548C06908210840002802D00820FD
:1032E00001490862704700000038014038020020A0
:1032F000380100201A48C06920210840002810D059
:10330000174820308088C1B2164882788078401CE7
:10331000C3B214488370FE388154012012490870EA
:103320001CE00F48C06902210840002803D0022099
:103330000B49086212E00A48C069042108400028CD
:1033400003D004200649086208E00548C069082146
:103350000840002802D00820014908627047000098
:10336000004400403B0300203B02002010B5024611
:1033700000200CE0135C074C238100BF054B203B71
:10338000DB6980242340002BF8D0431CD8B288424C
:10339000F0DB10BD2038014070B504460D46022117
:1033A0000920C006FFF7FCF800200CE0215C0E4A63
:1033B000118100BF0C492039C969802211400029C0
:1033C000F8D0411CC8B2A842F0DB00BF0648203844
:1033D000C069402108400028F8D002210920C00619
:1033E000FFF7DCF870BD00002044004008B5164827
:1033F0000068002827D014481349806B401C88635C
:103400000846806B1E280CD90846406B401C486358
:103410000020886315206946087001216846FFF77F
:10342000BBFF0948406B05280CDD3C210648FEF730
:10343000C2FE18216846017041700221FFF7ACFFFF
:10344000FFF7FEFC00BF08BD9803002002E008C89B
:10345000121F08C1002AFAD170477047002001E00E
:1034600001C1121F002AFBD17047000001B50748B7
:103470000068009940180649086000BF04480068C9
:10348000024909688842F9D808BD0000D40000202C
:10349000D800002010B50446A005800D002806D1F4
:1034A0000120C006844202D30748844200D910BDDF
:1034B000FEF704FF3420FEF7A9FE2046FEF7ACFE1F
:1034C000FEF7DAFE00BFF2E7FF7F0008F8B5054619
:1034D0000E461746FEF7F2FE3420FEF797FE002454
:1034E00007E06200B15A62005019FEF7CDFE601C81
:1034F000C4B2BC42F5DBFEF7BFFEF8BD70B50446B2
:103500000D46FEF7DBFE3420FEF780FE29462046FE
:10351000FEF7BAFEFEF7B0FE70BD00001CB501213B
:1035200003204004FFF798FC01220921C806FFF799
:1035300025F801220A210920C006FFF71FF8012201
:1035400002210920C006FFF719F8012203210920F2
:10355000C006FFF713F81D4800900221684601716C
:103560000321417100218171C17169460920C006A2
:10357000FEF7CCFF03200090012168460171002175
:103580008171032141710121C17169460920C00681
:10359000FEF7BCFF0220009069460D48FEF7B6FF1B
:1035A00001210920C006FEF7F9FF02210920C0060B
:1035B000FEF7F4FF02210648FEF7F0FF6420FFF754
:1035C00055FF02210248FEF7EBFF1CBD0C06000070
:1035D00000040048F8B500213148324C8278324D61
:1035E000FF380138EE78237A8078E5792F4F062A64
:1035F00003D1062801D1E02E02D0062A15D110E011
:10360000862D07D1042B05D100203870A070012031
:10361000FEF710FFE079812801D1002060720220BE
:10362000F8BD062801D1892E01D00320F8BD002065
:1036300005E01D4E3618B6787140401CC0B282427B
:10364000F7D8002901D00120F8BD0120184E802DA7
:1036500004D0812D07D0862D20D114E0387030465B
:1036600000F076F91AE038700F49087949790002BC
:10367000084320800121C905401800F069F930464F
:1036800000F066F90AE0042B08D13978012905D148
:1036900000213970A0700120FEF7CCFE0020F8BD9B
:1036A000380200203E0300203801002010010020D5
:1036B000050486007CB56B46187001245C70997017
:1036C000DA7000251D716040514048405871062154
:1036D000684600F025F97CBD10B50B4C0020E07069
:1036E0000A49488120790A49401800F031F9607987
:1036F00008491038084300F02BF9A0790649401812
:1037000000F026F910BD00003E0300205804002000
:1037100000018F0000028F0000048F0010B5002010
:10372000194A130481008C182468C9180C60401CC5
:10373000C0B23028F6D30320FFF7C6FB01210846AC
:10374000FFF7B4FBFFF78AFC1049114841611149AA
:103750000722CB691B021B0A44042343CB610021CF
:103760008161026100F0E0F800F0B2F8FFF7D6FEE8
:10377000FEF73AFFFFF7D0F9FEF7C0FDFFF7ACFF09
:1037800000F08EF8002010BD002000087FBB000074
:1037900000E000E004ED00E070B5FF22FF23094DDA
:1037A000EE1DF93605E00478401C54402A5D5A406D
:1037B000335D0C46491E89B2002CF4D11802104327
:1037C00070BD00007C39000808B5234801882348F3
:1037D000408A81420BD021490122498AD2051143F6
:1037E000084600F0B5F81D481B49408A08801A4871
:1037F000407A002805DD18481749407A401E487273
:1038000008BD684600F032F8002823D0009812491D
:103810000002000EC87100980004000E08720846ED
:10382000C079862802D1142048720AE00A48C0797B
:10383000812803D108496420487202E00649022029
:103840004872009BDAB21B04190E009B1B02180E73
:10385000FFF730FF00BFD3E73E03002078040020CD
:103860000148006870470000D400002010B50B4CE0
:10387000A17900290FD0227921689200895801602E
:103880002079E179401CFEF753FC2171A079401E9C
:10389000A071012010BD002010BD00001401002007
:1038A000084900200880084908800849088008E085
:1038B0000448FFF741FC0448FFF77CFC0348FFF78E
:1038C000B3FCF5E7E4000020EC000020F400002049
:1038D00008B501218803FFF7DBFA01214804FFF74F
:1038E000C9FA1B2168460170012141708170FFF700
:1038F0007FFA1C2168460170FFF77AFA05480649ED
:1039000088812D2008600348044988812D200860A3
:1039100008BD00008813000000380140004400404A
:1039200010B5FFF723FD10BD10B50748FEF756FE92
:103930000520FEF747FE0548FEF74AFEFEF73AFE71
:10394000FEF730FE10BD00005555000010270000A6
:1039500010B5094CA179E27991420CD262792168C3
:10396000920088506079E179401CFEF7E1FB6171BB
:10397000A079401CA07110BD1401002000C181403D
:1039800001C0804101C0804100C1814001C080412F
:1039900000C1814000C1814001C0804101C080411F
:1039A00000C1814000C1814001C0804100C181400F
:1039B00001C0804101C0804100C1814001C08041FF
:1039C00000C1814000C1814001C0804100C18140EF
:1039D00001C0804101C0804100C1814000C18140DF
:1039E00001C0804101C0804100C1814001C08041CF
:1039F00000C1814000C1814001C0804101C08041BF
:103A000000C1814000C1814001C0804100C18140AE
:103A100001C0804101C0804100C1814000C181409E
:103A200001C0804101C0804100C1814001C080418E
:103A300000C1814000C1814001C0804100C181407E
:103A400001C0804101C0804100C1814001C080416E
:103A500000C1814000C1814001C0804101C080415E
:103A600000C1814000C1814001C0804100C181404E
:103A700001C0804101C0804100C1814000C0C1013E
:103A8000C30302C2C60607C705C5C404CC0C0DCDCE
:103A90000FCFCE0E0ACACB0BC90908C8D81819D93E
:103AA0001BDBDA1A1EDEDF1FDD1D1CDC14D4D5156E
:103AB000D71716D6D21213D311D1D010F03031F15E
:103AC00033F3F23236F6F737F53534F43CFCFD3D8E
:103AD000FF3F3EFEFA3A3BFB39F9F83828E8E9297E
:103AE000EB2B2AEAEE2E2FEF2DEDEC2CE42425E52E
:103AF00027E7E62622E2E323E12120E0A06061A19E
:103B000063A3A26266A6A767A56564A46CACAD6D4D
:103B1000AF6F6EAEAA6A6BAB69A9A86878B8B979BD
:103B2000BB7B7ABABE7E7FBF7DBDBC7CB47475B5ED
:103B300077B7B67672B2B373B17170B050909151DD
:103B40009353529296565797559594549C5C5D9D0D
:103B50005F9F9E5E5A9A9B5B9959589888484989FD
:103B60004B8B8A4A4E8E8F4F8D4D4C8C44848545AD
:103B70008747468682424383418180409C3B0008C0
:103B8000C0000020780000004C340008143C0008FD
:103B900038010020700700005C340008006CDC0273
:103BA00000000000000000000102030406070809ED
:103BB0000000000000000000000000000000000005
:103BC00000000000000000000000000000000000F5
:103BD000000000000000000000FF6F50A55A3826CA
:103BE000FE000000000000000000000000000000D7
:103BF00048030020000000140000000058040020CA
:103C00000000000008000000780400200000000010
:043C10000B000000A5
:04000005080020C10E
:00000001FF
